{"contracts/buddyGuard.sol":{"buddyGuard":{"abi":[{"inputs":[{"internalType":"address","name":"_paymentToken","type":"address"},{"internalType":"uint256","name":"_initialExpirationDuration","type":"uint256"}],"stateMutability":"nonpayable","type":"constructor"},{"anonymous":false,"inputs":[{"indexed":true,"internalType":"uint256","name":"orderId","type":"uint256"},{"indexed":true,"internalType":"address","name":"guardian","type":"address"},{"indexed":false,"internalType":"uint256","name":"payment","type":"uint256"}],"name":"GuardianAdded","type":"event"},{"anonymous":false,"inputs":[{"indexed":true,"internalType":"address","name":"guardian","type":"address"},{"indexed":false,"internalType":"uint256","name":"newPricing","type":"uint256"}],"name":"GuardianPricingUpdated","type":"event"},{"anonymous":false,"inputs":[{"indexed":true,"internalType":"uint256","name":"orderId","type":"uint256"},{"indexed":true,"internalType":"address","name":"guardian","type":"address"}],"name":"GuardianRemoved","type":"event"},{"anonymous":false,"inputs":[{"indexed":true,"internalType":"uint256","name":"orderId","type":"uint256"}],"name":"OrderCompleted","type":"event"},{"anonymous":false,"inputs":[{"indexed":true,"internalType":"uint256","name":"orderId","type":"uint256"},{"indexed":true,"internalType":"address","name":"creator","type":"address"},{"indexed":false,"internalType":"uint256","name":"totalPayment","type":"uint256"}],"name":"OrderCreated","type":"event"},{"anonymous":false,"inputs":[{"indexed":true,"internalType":"uint256","name":"orderId","type":"uint256"},{"indexed":true,"internalType":"address","name":"guardian","type":"address"}],"name":"OrderExpired","type":"event"},{"anonymous":false,"inputs":[{"indexed":true,"internalType":"address","name":"previousOwner","type":"address"},{"indexed":true,"internalType":"address","name":"newOwner","type":"address"}],"name":"OwnershipTransferred","type":"event"},{"anonymous":false,"inputs":[{"indexed":true,"internalType":"uint256","name":"orderId","type":"uint256"},{"indexed":true,"internalType":"address","name":"guardian","type":"address"},{"indexed":false,"internalType":"uint256","name":"amount","type":"uint256"}],"name":"PaymentDistributed","type":"event"},{"anonymous":false,"inputs":[{"indexed":false,"internalType":"address","name":"newPaymentToken","type":"address"}],"name":"PaymentTokenUpdated","type":"event"},{"anonymous":false,"inputs":[{"indexed":false,"internalType":"uint256","name":"newFee","type":"uint256"}],"name":"PlatformFeeUpdated","type":"event"},{"inputs":[{"internalType":"address[]","name":"_guardians","type":"address[]"}],"name":"calculateTotalPrice","outputs":[{"internalType":"uint256","name":"totalPrice","type":"uint256"}],"stateMutability":"view","type":"function"},{"inputs":[{"internalType":"uint256","name":"_orderId","type":"uint256"},{"internalType":"address[]","name":"_guardiansToAdd","type":"address[]"},{"internalType":"address[]","name":"_guardiansToRemove","type":"address[]"}],"name":"changeGuardians","outputs":[],"stateMutability":"nonpayable","type":"function"},{"inputs":[{"internalType":"uint256","name":"_orderId","type":"uint256"}],"name":"completeOrder","outputs":[],"stateMutability":"nonpayable","type":"function"},{"inputs":[{"internalType":"address[]","name":"_guardians","type":"address[]"}],"name":"createOrder","outputs":[],"stateMutability":"nonpayable","type":"function"},{"inputs":[{"internalType":"address[]","name":"_guardians","type":"address[]"},{"internalType":"uint256","name":"_deadline","type":"uint256"},{"internalType":"uint8","name":"_v","type":"uint8"},{"internalType":"bytes32","name":"_r","type":"bytes32"},{"internalType":"bytes32","name":"_s","type":"bytes32"}],"name":"createOrderWithPermit","outputs":[],"stateMutability":"nonpayable","type":"function"},{"inputs":[],"name":"expirationDuration","outputs":[{"internalType":"uint256","name":"","type":"uint256"}],"stateMutability":"view","type":"function"},{"inputs":[{"internalType":"uint256","name":"_orderId","type":"uint256"}],"name":"getOrderDetails","outputs":[{"internalType":"address","name":"","type":"address"},{"internalType":"address[]","name":"","type":"address[]"},{"internalType":"uint256","name":"","type":"uint256"},{"internalType":"bool","name":"","type":"bool"},{"internalType":"uint256","name":"","type":"uint256"}],"stateMutability":"view","type":"function"},{"inputs":[{"internalType":"uint256","name":"","type":"uint256"},{"internalType":"address","name":"","type":"address"}],"name":"guardianPayments","outputs":[{"internalType":"uint256","name":"","type":"uint256"}],"stateMutability":"view","type":"function"},{"inputs":[{"internalType":"address","name":"","type":"address"}],"name":"guardianPricing","outputs":[{"internalType":"uint256","name":"","type":"uint256"}],"stateMutability":"view","type":"function"},{"inputs":[],"name":"orderCount","outputs":[{"internalType":"uint256","name":"","type":"uint256"}],"stateMutability":"view","type":"function"},{"inputs":[{"internalType":"uint256","name":"","type":"uint256"}],"name":"orders","outputs":[{"internalType":"address","name":"creator","type":"address"},{"internalType":"uint256","name":"creationTime","type":"uint256"},{"internalType":"bool","name":"isActive","type":"bool"},{"internalType":"uint256","name":"totalPayment","type":"uint256"}],"stateMutability":"view","type":"function"},{"inputs":[],"name":"owner","outputs":[{"internalType":"address","name":"","type":"address"}],"stateMutability":"view","type":"function"},{"inputs":[],"name":"paymentToken","outputs":[{"internalType":"contract IERC20","name":"","type":"address"}],"stateMutability":"view","type":"function"},{"inputs":[],"name":"platformFee","outputs":[{"internalType":"uint256","name":"","type":"uint256"}],"stateMutability":"view","type":"function"},{"inputs":[],"name":"renounceOwnership","outputs":[],"stateMutability":"nonpayable","type":"function"},{"inputs":[{"internalType":"uint256","name":"_newDuration","type":"uint256"}],"name":"setExpirationDuration","outputs":[],"stateMutability":"nonpayable","type":"function"},{"inputs":[{"internalType":"uint256","name":"_price","type":"uint256"}],"name":"setGuardianPricing","outputs":[],"stateMutability":"nonpayable","type":"function"},{"inputs":[{"internalType":"address[]","name":"_guardians","type":"address[]"},{"internalType":"uint256[]","name":"_prices","type":"uint256[]"}],"name":"setGuardiansPricing","outputs":[],"stateMutability":"nonpayable","type":"function"},{"inputs":[{"internalType":"address","name":"_newPaymentToken","type":"address"}],"name":"setPaymentToken","outputs":[],"stateMutability":"nonpayable","type":"function"},{"inputs":[{"internalType":"uint256","name":"_newFee","type":"uint256"}],"name":"setPlatformFee","outputs":[],"stateMutability":"nonpayable","type":"function"},{"inputs":[{"internalType":"address","name":"newOwner","type":"address"}],"name":"transferOwnership","outputs":[],"stateMutability":"nonpayable","type":"function"},{"inputs":[{"internalType":"uint256","name":"_orderId","type":"uint256"}],"name":"trigExpiredOrder","outputs":[],"stateMutability":"nonpayable","type":"function"},{"inputs":[],"name":"withdrawEth","outputs":[],"stateMutability":"nonpayable","type":"function"},{"inputs":[{"internalType":"uint256","name":"_amount","type":"uint256"}],"name":"withdrawToken","outputs":[],"stateMutability":"nonpayable","type":"function"}],"evm":{"bytecode":{"linkReferences":{},"object":"60806040526101f46006553480156200001757600080fd5b5060405162001fce38038062001fce8339810160408190526200003a916200011e565b6200004533620000ce565b600180556001600160a01b038216620000a45760405162461bcd60e51b815260206004820152601560248201527f496e76616c696420746f6b656e20616464726573730000000000000000000000604482015260640160405180910390fd5b600280546001600160a01b0319166001600160a01b0393909316929092179091556003556200015a565b600080546001600160a01b038381166001600160a01b0319831681178455604051919092169283917f8be0079c531659141344cd1fd0a4f28419497f9722a3daafe3b4186f6b6457e09190a35050565b600080604083850312156200013257600080fd5b82516001600160a01b03811681146200014a57600080fd5b6020939093015192949293505050565b611e64806200016a6000396000f3fe608060405234801561001057600080fd5b50600436106101585760003560e01c8063715018a6116100c3578063b6adaaff1161007c578063b6adaaff14610319578063c7ba56bc1461032c578063e50a5fd014610357578063e6e6db4e1461036a578063ec7dd7bb1461037d578063f2fde38b146103a157600080fd5b8063715018a61461025d5780638da5cb5b146102655780639bd16a9514610276578063a0ef91df14610289578063a85c38ef14610291578063ab0257f41461030657600080fd5b80634011f4aa116101155780634011f4aa146101de57806343e5fab3146101fe57806350baa62214610211578063626485a314610224578063678b5b7b146102375780636a326ab11461024a57600080fd5b806311a4c03a1461015d57806312e8e2c3146101795780632453ffa81461018e57806326232a2e146101975780633013ce29146101a057806338da7143146101cb575b600080fd5b61016660035481565b6040519081526020015b60405180910390f35b61018c6101873660046119db565b6103b4565b005b61016660075481565b61016660065481565b6002546101b3906001600160a01b031681565b6040516001600160a01b039091168152602001610170565b61018c6101d93660046119db565b61043e565b6101666101ec366004611a10565b60046020526000908152604090205481565b61018c61020c366004611a48565b61048d565b61018c61021f3660046119db565b6107a5565b61018c6102323660046119db565b610892565b61018c6102453660046119db565b61089f565b61018c610258366004611a10565b6109c3565b61018c610a67565b6000546001600160a01b03166101b3565b61018c610284366004611b59565b610a7b565b61018c610be1565b6102d661029f3660046119db565b60086020526000908152604090208054600282015460038301546004909301546001600160a01b0390921692909160ff9091169084565b604080516001600160a01b0390951685526020850193909352901515918301919091526060820152608001610170565b61018c610314366004611bc5565b610c35565b61018c6103273660046119db565b610ff1565b61016661033a366004611c3f565b600560209081526000928352604080842090915290825290205481565b610166610365366004611a48565b6110aa565b61018c610378366004611c6b565b61111b565b61039061038b3660046119db565b611236565b604051610170959493929190611ce2565b61018c6103af366004611a10565b6112e5565b6103bc61135b565b6127108111156104025760405162461bcd60e51b815260206004820152600c60248201526b08ccaca40e8dede40d0d2ced60a31b60448201526064015b60405180910390fd5b60068190556040518181527f45610d581145924dd7090a5017e5f2b1d6f42213bb2e95707ff86846bbfcb1ca906020015b60405180910390a150565b3360008181526004602052604090819020839055517f0ac566928846c6129b07721af76e58fe5d8d9e6df98589219a2cf7ba8708f2db906104829084815260200190565b60405180910390a250565b6104956113b5565b60006104a0826110aa565b90508015610569576002546040516323b872dd60e01b8152336004820152306024820152604481018390526001600160a01b03909116906323b872dd906064016020604051808303816000875af11580156104ff573d6000803e3d6000fd5b505050506040513d601f19601f820116820180604052508101906105239190611d52565b6105695760405162461bcd60e51b815260206004820152601760248201527614185e5b595b9d081d1c985b9cd9995c8819985a5b1959604a1b60448201526064016103f9565b600754600090815260086020526040812080546001600160a01b0319163317815542600282015560038101805460ff1916600117905560048101839055905b835181101561074857816001018482815181106105c7576105c7611d74565b6020908102919091018101518254600181018455600093845291832090910180546001600160a01b0319166001600160a01b0390921691909117905584516004919086908490811061061b5761061b611d74565b60200260200101516001600160a01b03166001600160a01b0316815260200190815260200160002054600560006007548152602001908152602001600020600086848151811061066d5761066d611d74565b60200260200101516001600160a01b03166001600160a01b03168152602001908152602001600020819055508381815181106106ab576106ab611d74565b60200260200101516001600160a01b03166007547f328cfb31557826bd0ee2af22d41990313383e5254b4a543c6eeb1dbc72e8a42e600460008886815181106106f6576106f6611d74565b60200260200101516001600160a01b03166001600160a01b031681526020019081526020016000205460405161072e91815260200190565b60405180910390a38061074081611da0565b9150506105a8565b506007546040518381523391907f28eb86fd03c9bd96a8a83e4a46ab2ad257b70cea893d98ad6d482e96aa25fad09060200160405180910390a36007805490600061079283611da0565b919050555050506107a260018055565b50565b6107ad61135b565b6107b56113b5565b6002546001600160a01b031663a9059cbb6107d86000546001600160a01b031690565b6040516001600160e01b031960e084901b1681526001600160a01b039091166004820152602481018490526044016020604051808303816000875af1158015610825573d6000803e3d6000fd5b505050506040513d601f19601f820116820180604052508101906108499190611d52565b6108895760405162461bcd60e51b815260206004820152601160248201527015da5d1a191c985dd85b0819985a5b1959607a1b60448201526064016103f9565b6107a260018055565b61089a61135b565b600355565b6108a76113b5565b60008181526008602052604090206108bf813361140e565b6109165760405162461bcd60e51b815260206004820152602260248201527f4f6e6c792061737369676e656420677561726469616e2063616e20747269676760448201526132b960f11b60648201526084016103f9565b6003546000838152600860205260409020600201546109359190611db9565b42116109835760405162461bcd60e51b815260206004820152601e60248201527f4f72646572206475726174696f6e206e6f74207965742065787069726564000060448201526064016103f9565b61098c8261147f565b604051339083907f14f735d5fcf12036a5146349c08cfedec3d13e64847008d65d08f4713f23e8b390600090a3506107a260018055565b6109cb61135b565b6001600160a01b038116610a195760405162461bcd60e51b8152602060048201526015602482015274496e76616c696420746f6b656e206164647265737360581b60448201526064016103f9565b600280546001600160a01b0319166001600160a01b0383169081179091556040519081527fbd4032c1c91da2791730ea1bbc82c6b6f857da7c0a8318143d19ef74e62cd91390602001610433565b610a6f61135b565b610a7960006116ac565b565b610a8361135b565b828114610ade5760405162461bcd60e51b8152602060048201526024808201527f477561726469616e7320616e6420707269636573206c656e677468206d69736d6044820152630c2e8c6d60e31b60648201526084016103f9565b60005b83811015610bda57828282818110610afb57610afb611d74565b9050602002013560046000878785818110610b1857610b18611d74565b9050602002016020810190610b2d9190611a10565b6001600160a01b03168152602081019190915260400160002055848482818110610b5957610b59611d74565b9050602002016020810190610b6e9190611a10565b6001600160a01b03167f0ac566928846c6129b07721af76e58fe5d8d9e6df98589219a2cf7ba8708f2db848484818110610baa57610baa611d74565b90506020020135604051610bc091815260200190565b60405180910390a280610bd281611da0565b915050610ae1565b5050505050565b610be961135b565b610bf16113b5565b600080546040516001600160a01b03909116914780156108fc02929091818181858888f19350505050158015610c2b573d6000803e3d6000fd5b50610a7960018055565b610c3d6113b5565b6000858152600860205260409020546001600160a01b03163314610cb35760405162461bcd60e51b815260206004820152602760248201527f4f6e6c79206f726465722063726561746f722063616e206368616e676520677560448201526661726469616e7360c81b60648201526084016103f9565b60008581526008602052604090206003015460ff16610d0a5760405162461bcd60e51b81526020600482015260136024820152724f72646572206973206e6f742061637469766560681b60448201526064016103f9565b6000610d488585808060200260200160405190810160405280939291908181526020018383602002808284376000920191909152506110aa92505050565b90506000610d888484808060200260200160405190810160405280939291908181526020018383602002808284376000920191909152506110aa92505050565b905080821115610e72576002546001600160a01b03166323b872dd3330610daf8587611dcc565b6040516001600160e01b031960e086901b1681526001600160a01b03938416600482015292909116602483015260448201526064016020604051808303816000875af1158015610e03573d6000803e3d6000fd5b505050506040513d601f19601f82011682018060405250810190610e279190611d52565b610e6d5760405162461bcd60e51b815260206004820152601760248201527614185e5b595b9d081d1c985b9cd9995c8819985a5b1959604a1b60448201526064016103f9565b610f4a565b81811115610f4a576002546001600160a01b031663a9059cbb33610e968585611dcc565b6040516001600160e01b031960e085901b1681526001600160a01b03909216600483015260248201526044016020604051808303816000875af1158015610ee1573d6000803e3d6000fd5b505050506040513d601f19601f82011682018060405250810190610f059190611d52565b610f4a5760405162461bcd60e51b81526020600482015260166024820152751499599d5b99081d1c985b9cd9995c8819985a5b195960521b60448201526064016103f9565b60005b85811015610f9757610f8588888884818110610f6b57610f6b611d74565b9050602002016020810190610f809190611a10565b6116fc565b80610f8f81611da0565b915050610f4d565b5060005b83811015610fe557610fd388868684818110610fb957610fb9611d74565b9050602002016020810190610fce9190611a10565b611838565b80610fdd81611da0565b915050610f9b565b505050610bda60018055565b610ff96113b5565b6000818152600860205260409020546001600160a01b0316331461106d5760405162461bcd60e51b815260206004820152602560248201527f4f6e6c79206f726465722063726561746f722063616e20636f6d706c6574652060448201526437b93232b960d91b60648201526084016103f9565b6110768161147f565b60405181907f02a7d4d9472af7118644884b9a0ee443540c0027e938dd0aa35be8ecbe946c0a90600090a26107a260018055565b6000805b825181101561111557600460008483815181106110cd576110cd611d74565b60200260200101516001600160a01b03166001600160a01b0316815260200190815260200160002054826111019190611db9565b91508061110d81611da0565b9150506110ae565b50919050565b60025460408051602080890282810182019093528882526001600160a01b039093169263d505accf923392309261116d928d918d9182918501908490808284376000920191909152506110aa92505050565b6040516001600160e01b031960e086901b1681526001600160a01b03938416600482015292909116602483015260448201526064810187905260ff8616608482015260a4810185905260c4810184905260e401600060405180830381600087803b1580156111da57600080fd5b505af11580156111ee573d6000803e3d6000fd5b5050505061122e86868080602002602001604051908101604052809392919081815260200183836020028082843760009201919091525061048d92505050565b505050505050565b600081815260086020908152604080832080546002820154600383015460048401546001850180548751818a0281018a019098528088526060988a988998899890976001600160a01b03909116969495909460ff169390928691908301828280156112ca57602002820191906000526020600020905b81546001600160a01b031681526001909101906020018083116112ac575b50505050509350955095509550955095505091939590929450565b6112ed61135b565b6001600160a01b0381166113525760405162461bcd60e51b815260206004820152602660248201527f4f776e61626c653a206e6577206f776e657220697320746865207a65726f206160448201526564647265737360d01b60648201526084016103f9565b6107a2816116ac565b6000546001600160a01b03163314610a795760405162461bcd60e51b815260206004820181905260248201527f4f776e61626c653a2063616c6c6572206973206e6f7420746865206f776e657260448201526064016103f9565b6002600154036114075760405162461bcd60e51b815260206004820152601f60248201527f5265656e7472616e637947756172643a207265656e7472616e742063616c6c0060448201526064016103f9565b6002600155565b6000805b600184015481101561147357826001600160a01b031684600101828154811061143d5761143d611d74565b6000918252602090912001546001600160a01b031603611461576001915050611479565b8061146b81611da0565b915050611412565b50600090505b92915050565b6000818152600860205260409020600381015460ff166114f15760405162461bcd60e51b815260206004820152602760248201527f4f7264657220697320616c726561647920636f6d706c65746564206f722063616044820152661b98d95b1b195960ca1b60648201526084016103f9565b600181015460048201541561169d5760005b8181101561169b57600083600101828154811061152257611522611d74565b60009182526020808320909101548783526005825260408084206001600160a01b0390921680855291909252908220546006549193509190612710906115689082611dcc565b6115729084611ddf565b61157c9190611df6565b60025460405163a9059cbb60e01b81526001600160a01b0386811660048301526024820184905292935091169063a9059cbb906044016020604051808303816000875af11580156115d1573d6000803e3d6000fd5b505050506040513d601f19601f820116820180604052508101906115f59190611d52565b6116415760405162461bcd60e51b815260206004820152601a60248201527f5061796d656e7420746f20677561726469616e206661696c656400000000000060448201526064016103f9565b826001600160a01b0316877f37566df6971769c95a4c085fc4c32ebbe7d4b2aa133fe7fe20895e5789bcff128360405161167d91815260200190565b60405180910390a3505050808061169390611da0565b915050611503565b505b50600301805460ff1916905550565b600080546001600160a01b038381166001600160a01b0319831681178455604051919092169283917f8be0079c531659141344cd1fd0a4f28419497f9722a3daafe3b4186f6b6457e09190a35050565b6000828152600860205260408120905b60018201548110156117a457826001600160a01b031682600101828154811061173757611737611d74565b6000918252602090912001546001600160a01b0316036117925760405162461bcd60e51b815260206004820152601660248201527511dd585c991a585b88185b1c9958591e48185919195960521b60448201526064016103f9565b8061179c81611da0565b91505061170c565b506001818101805491820181556000908152602080822090920180546001600160a01b0319166001600160a01b038616908117909155808252600480845260408084205488855260058652818520848652865293819020849055908452519182529185917f328cfb31557826bd0ee2af22d41990313383e5254b4a543c6eeb1dbc72e8a42e910160405180910390a3505050565b600082815260086020526040812090805b600183015481101561195c57836001600160a01b031683600101828154811061187457611874611d74565b6000918252602090912001546001600160a01b03160361194a576001808401805490916118a091611dcc565b815481106118b0576118b0611d74565b6000918252602090912001546001840180546001600160a01b0390921691839081106118de576118de611d74565b9060005260206000200160006101000a8154816001600160a01b0302191690836001600160a01b031602179055508260010180548061191f5761191f611e18565b600082815260209020810160001990810180546001600160a01b03191690550190556001915061195c565b8061195481611da0565b915050611849565b508061199f5760405162461bcd60e51b815260206004820152601260248201527111dd585c991a585b881b9bdd08199bdd5b9960721b60448201526064016103f9565b6040516001600160a01b0384169085907f22d4e8d1c30dd68c7d46e1bf9eeababcefa4f25d05ff459f056853227e23968290600090a350505050565b6000602082840312156119ed57600080fd5b5035919050565b80356001600160a01b0381168114611a0b57600080fd5b919050565b600060208284031215611a2257600080fd5b611a2b826119f4565b9392505050565b634e487b7160e01b600052604160045260246000fd5b60006020808385031215611a5b57600080fd5b823567ffffffffffffffff80821115611a7357600080fd5b818501915085601f830112611a8757600080fd5b813581811115611a9957611a99611a32565b8060051b604051601f19603f83011681018181108582111715611abe57611abe611a32565b604052918252848201925083810185019188831115611adc57600080fd5b938501935b82851015611b0157611af2856119f4565b84529385019392850192611ae1565b98975050505050505050565b60008083601f840112611b1f57600080fd5b50813567ffffffffffffffff811115611b3757600080fd5b6020830191508360208260051b8501011115611b5257600080fd5b9250929050565b60008060008060408587031215611b6f57600080fd5b843567ffffffffffffffff80821115611b8757600080fd5b611b9388838901611b0d565b90965094506020870135915080821115611bac57600080fd5b50611bb987828801611b0d565b95989497509550505050565b600080600080600060608688031215611bdd57600080fd5b85359450602086013567ffffffffffffffff80821115611bfc57600080fd5b611c0889838a01611b0d565b90965094506040880135915080821115611c2157600080fd5b50611c2e88828901611b0d565b969995985093965092949392505050565b60008060408385031215611c5257600080fd5b82359150611c62602084016119f4565b90509250929050565b60008060008060008060a08789031215611c8457600080fd5b863567ffffffffffffffff811115611c9b57600080fd5b611ca789828a01611b0d565b90975095505060208701359350604087013560ff81168114611cc857600080fd5b959894975092956060810135946080909101359350915050565b6001600160a01b03868116825260a0602080840182905287519184018290526000928882019290919060c0860190855b81811015611d30578551851683529483019491830191600101611d12565b5050604086019890985250505050911515606083015260809091015292915050565b600060208284031215611d6457600080fd5b81518015158114611a2b57600080fd5b634e487b7160e01b600052603260045260246000fd5b634e487b7160e01b600052601160045260246000fd5b600060018201611db257611db2611d8a565b5060010190565b8082018082111561147957611479611d8a565b8181038181111561147957611479611d8a565b808202811582820484141761147957611479611d8a565b600082611e1357634e487b7160e01b600052601260045260246000fd5b500490565b634e487b7160e01b600052603160045260246000fdfea264697066735822122012e7f68cd03a7567c1c441f1753bd0c7b0b8d239513eae9a3683c990f2479d9a64736f6c63430008120033","opcodes":"PUSH1 0x80 PUSH1 0x40 MSTORE PUSH2 0x1F4 PUSH1 0x6 SSTORE CALLVALUE DUP1 ISZERO PUSH3 0x17 JUMPI PUSH1 0x0 DUP1 REVERT JUMPDEST POP PUSH1 0x40 MLOAD PUSH3 0x1FCE CODESIZE SUB DUP1 PUSH3 0x1FCE DUP4 CODECOPY DUP2 ADD PUSH1 0x40 DUP2 SWAP1 MSTORE PUSH3 0x3A SWAP2 PUSH3 0x11E JUMP JUMPDEST PUSH3 0x45 CALLER PUSH3 0xCE JUMP JUMPDEST PUSH1 0x1 DUP1 SSTORE PUSH1 0x1 PUSH1 0x1 PUSH1 0xA0 SHL SUB DUP3 AND PUSH3 0xA4 JUMPI PUSH1 0x40 MLOAD PUSH3 0x461BCD PUSH1 0xE5 SHL DUP2 MSTORE PUSH1 0x20 PUSH1 0x4 DUP3 ADD MSTORE PUSH1 0x15 PUSH1 0x24 DUP3 ADD MSTORE PUSH32 0x496E76616C696420746F6B656E20616464726573730000000000000000000000 PUSH1 0x44 DUP3 ADD MSTORE PUSH1 0x64 ADD PUSH1 0x40 MLOAD DUP1 SWAP2 SUB SWAP1 REVERT JUMPDEST PUSH1 0x2 DUP1 SLOAD PUSH1 0x1 PUSH1 0x1 PUSH1 0xA0 SHL SUB NOT AND PUSH1 0x1 PUSH1 0x1 PUSH1 0xA0 SHL SUB SWAP4 SWAP1 SWAP4 AND SWAP3 SWAP1 SWAP3 OR SWAP1 SWAP2 SSTORE PUSH1 0x3 SSTORE PUSH3 0x15A JUMP JUMPDEST PUSH1 0x0 DUP1 SLOAD PUSH1 0x1 PUSH1 0x1 PUSH1 0xA0 SHL SUB DUP4 DUP2 AND PUSH1 0x1 PUSH1 0x1 PUSH1 0xA0 SHL SUB NOT DUP4 AND DUP2 OR DUP5 SSTORE PUSH1 0x40 MLOAD SWAP2 SWAP1 SWAP3 AND SWAP3 DUP4 SWAP2 PUSH32 0x8BE0079C531659141344CD1FD0A4F28419497F9722A3DAAFE3B4186F6B6457E0 SWAP2 SWAP1 LOG3 POP POP JUMP JUMPDEST PUSH1 0x0 DUP1 PUSH1 0x40 DUP4 DUP6 SUB SLT ISZERO PUSH3 0x132 JUMPI PUSH1 0x0 DUP1 REVERT JUMPDEST DUP3 MLOAD PUSH1 0x1 PUSH1 0x1 PUSH1 0xA0 SHL SUB DUP2 AND DUP2 EQ PUSH3 0x14A JUMPI PUSH1 0x0 DUP1 REVERT JUMPDEST PUSH1 0x20 SWAP4 SWAP1 SWAP4 ADD MLOAD SWAP3 SWAP5 SWAP3 SWAP4 POP POP POP JUMP JUMPDEST PUSH2 0x1E64 DUP1 PUSH3 0x16A PUSH1 0x0 CODECOPY PUSH1 0x0 RETURN INVALID PUSH1 0x80 PUSH1 0x40 MSTORE CALLVALUE DUP1 ISZERO PUSH2 0x10 JUMPI PUSH1 0x0 DUP1 REVERT JUMPDEST POP PUSH1 0x4 CALLDATASIZE LT PUSH2 0x158 JUMPI PUSH1 0x0 CALLDATALOAD PUSH1 0xE0 SHR DUP1 PUSH4 0x715018A6 GT PUSH2 0xC3 JUMPI DUP1 PUSH4 0xB6ADAAFF GT PUSH2 0x7C JUMPI DUP1 PUSH4 0xB6ADAAFF EQ PUSH2 0x319 JUMPI DUP1 PUSH4 0xC7BA56BC EQ PUSH2 0x32C JUMPI DUP1 PUSH4 0xE50A5FD0 EQ PUSH2 0x357 JUMPI DUP1 PUSH4 0xE6E6DB4E EQ PUSH2 0x36A JUMPI DUP1 PUSH4 0xEC7DD7BB EQ PUSH2 0x37D JUMPI DUP1 PUSH4 0xF2FDE38B EQ PUSH2 0x3A1 JUMPI PUSH1 0x0 DUP1 REVERT JUMPDEST DUP1 PUSH4 0x715018A6 EQ PUSH2 0x25D JUMPI DUP1 PUSH4 0x8DA5CB5B EQ PUSH2 0x265 JUMPI DUP1 PUSH4 0x9BD16A95 EQ PUSH2 0x276 JUMPI DUP1 PUSH4 0xA0EF91DF EQ PUSH2 0x289 JUMPI DUP1 PUSH4 0xA85C38EF EQ PUSH2 0x291 JUMPI DUP1 PUSH4 0xAB0257F4 EQ PUSH2 0x306 JUMPI PUSH1 0x0 DUP1 REVERT JUMPDEST DUP1 PUSH4 0x4011F4AA GT PUSH2 0x115 JUMPI DUP1 PUSH4 0x4011F4AA EQ PUSH2 0x1DE JUMPI DUP1 PUSH4 0x43E5FAB3 EQ PUSH2 0x1FE JUMPI DUP1 PUSH4 0x50BAA622 EQ PUSH2 0x211 JUMPI DUP1 PUSH4 0x626485A3 EQ PUSH2 0x224 JUMPI DUP1 PUSH4 0x678B5B7B EQ PUSH2 0x237 JUMPI DUP1 PUSH4 0x6A326AB1 EQ PUSH2 0x24A JUMPI PUSH1 0x0 DUP1 REVERT JUMPDEST DUP1 PUSH4 0x11A4C03A EQ PUSH2 0x15D JUMPI DUP1 PUSH4 0x12E8E2C3 EQ PUSH2 0x179 JUMPI DUP1 PUSH4 0x2453FFA8 EQ PUSH2 0x18E JUMPI DUP1 PUSH4 0x26232A2E EQ PUSH2 0x197 JUMPI DUP1 PUSH4 0x3013CE29 EQ PUSH2 0x1A0 JUMPI DUP1 PUSH4 0x38DA7143 EQ PUSH2 0x1CB JUMPI JUMPDEST PUSH1 0x0 DUP1 REVERT JUMPDEST PUSH2 0x166 PUSH1 0x3 SLOAD DUP2 JUMP JUMPDEST PUSH1 0x40 MLOAD SWAP1 DUP2 MSTORE PUSH1 0x20 ADD JUMPDEST PUSH1 0x40 MLOAD DUP1 SWAP2 SUB SWAP1 RETURN JUMPDEST PUSH2 0x18C PUSH2 0x187 CALLDATASIZE PUSH1 0x4 PUSH2 0x19DB JUMP JUMPDEST PUSH2 0x3B4 JUMP JUMPDEST STOP JUMPDEST PUSH2 0x166 PUSH1 0x7 SLOAD DUP2 JUMP JUMPDEST PUSH2 0x166 PUSH1 0x6 SLOAD DUP2 JUMP JUMPDEST PUSH1 0x2 SLOAD PUSH2 0x1B3 SWAP1 PUSH1 0x1 PUSH1 0x1 PUSH1 0xA0 SHL SUB AND DUP2 JUMP JUMPDEST PUSH1 0x40 MLOAD PUSH1 0x1 PUSH1 0x1 PUSH1 0xA0 SHL SUB SWAP1 SWAP2 AND DUP2 MSTORE PUSH1 0x20 ADD PUSH2 0x170 JUMP JUMPDEST PUSH2 0x18C PUSH2 0x1D9 CALLDATASIZE PUSH1 0x4 PUSH2 0x19DB JUMP JUMPDEST PUSH2 0x43E JUMP JUMPDEST PUSH2 0x166 PUSH2 0x1EC CALLDATASIZE PUSH1 0x4 PUSH2 0x1A10 JUMP JUMPDEST PUSH1 0x4 PUSH1 0x20 MSTORE PUSH1 0x0 SWAP1 DUP2 MSTORE PUSH1 0x40 SWAP1 KECCAK256 SLOAD DUP2 JUMP JUMPDEST PUSH2 0x18C PUSH2 0x20C CALLDATASIZE PUSH1 0x4 PUSH2 0x1A48 JUMP JUMPDEST PUSH2 0x48D JUMP JUMPDEST PUSH2 0x18C PUSH2 0x21F CALLDATASIZE PUSH1 0x4 PUSH2 0x19DB JUMP JUMPDEST PUSH2 0x7A5 JUMP JUMPDEST PUSH2 0x18C PUSH2 0x232 CALLDATASIZE PUSH1 0x4 PUSH2 0x19DB JUMP JUMPDEST PUSH2 0x892 JUMP JUMPDEST PUSH2 0x18C PUSH2 0x245 CALLDATASIZE PUSH1 0x4 PUSH2 0x19DB JUMP JUMPDEST PUSH2 0x89F JUMP JUMPDEST PUSH2 0x18C PUSH2 0x258 CALLDATASIZE PUSH1 0x4 PUSH2 0x1A10 JUMP JUMPDEST PUSH2 0x9C3 JUMP JUMPDEST PUSH2 0x18C PUSH2 0xA67 JUMP JUMPDEST PUSH1 0x0 SLOAD PUSH1 0x1 PUSH1 0x1 PUSH1 0xA0 SHL SUB AND PUSH2 0x1B3 JUMP JUMPDEST PUSH2 0x18C PUSH2 0x284 CALLDATASIZE PUSH1 0x4 PUSH2 0x1B59 JUMP JUMPDEST PUSH2 0xA7B JUMP JUMPDEST PUSH2 0x18C PUSH2 0xBE1 JUMP JUMPDEST PUSH2 0x2D6 PUSH2 0x29F CALLDATASIZE PUSH1 0x4 PUSH2 0x19DB JUMP JUMPDEST PUSH1 0x8 PUSH1 0x20 MSTORE PUSH1 0x0 SWAP1 DUP2 MSTORE PUSH1 0x40 SWAP1 KECCAK256 DUP1 SLOAD PUSH1 0x2 DUP3 ADD SLOAD PUSH1 0x3 DUP4 ADD SLOAD PUSH1 0x4 SWAP1 SWAP4 ADD SLOAD PUSH1 0x1 PUSH1 0x1 PUSH1 0xA0 SHL SUB SWAP1 SWAP3 AND SWAP3 SWAP1 SWAP2 PUSH1 0xFF SWAP1 SWAP2 AND SWAP1 DUP5 JUMP JUMPDEST PUSH1 0x40 DUP1 MLOAD PUSH1 0x1 PUSH1 0x1 PUSH1 0xA0 SHL SUB SWAP1 SWAP6 AND DUP6 MSTORE PUSH1 0x20 DUP6 ADD SWAP4 SWAP1 SWAP4 MSTORE SWAP1 ISZERO ISZERO SWAP2 DUP4 ADD SWAP2 SWAP1 SWAP2 MSTORE PUSH1 0x60 DUP3 ADD MSTORE PUSH1 0x80 ADD PUSH2 0x170 JUMP JUMPDEST PUSH2 0x18C PUSH2 0x314 CALLDATASIZE PUSH1 0x4 PUSH2 0x1BC5 JUMP JUMPDEST PUSH2 0xC35 JUMP JUMPDEST PUSH2 0x18C PUSH2 0x327 CALLDATASIZE PUSH1 0x4 PUSH2 0x19DB JUMP JUMPDEST PUSH2 0xFF1 JUMP JUMPDEST PUSH2 0x166 PUSH2 0x33A CALLDATASIZE PUSH1 0x4 PUSH2 0x1C3F JUMP JUMPDEST PUSH1 0x5 PUSH1 0x20 SWAP1 DUP2 MSTORE PUSH1 0x0 SWAP3 DUP4 MSTORE PUSH1 0x40 DUP1 DUP5 KECCAK256 SWAP1 SWAP2 MSTORE SWAP1 DUP3 MSTORE SWAP1 KECCAK256 SLOAD DUP2 JUMP JUMPDEST PUSH2 0x166 PUSH2 0x365 CALLDATASIZE PUSH1 0x4 PUSH2 0x1A48 JUMP JUMPDEST PUSH2 0x10AA JUMP JUMPDEST PUSH2 0x18C PUSH2 0x378 CALLDATASIZE PUSH1 0x4 PUSH2 0x1C6B JUMP JUMPDEST PUSH2 0x111B JUMP JUMPDEST PUSH2 0x390 PUSH2 0x38B CALLDATASIZE PUSH1 0x4 PUSH2 0x19DB JUMP JUMPDEST PUSH2 0x1236 JUMP JUMPDEST PUSH1 0x40 MLOAD PUSH2 0x170 SWAP6 SWAP5 SWAP4 SWAP3 SWAP2 SWAP1 PUSH2 0x1CE2 JUMP JUMPDEST PUSH2 0x18C PUSH2 0x3AF CALLDATASIZE PUSH1 0x4 PUSH2 0x1A10 JUMP JUMPDEST PUSH2 0x12E5 JUMP JUMPDEST PUSH2 0x3BC PUSH2 0x135B JUMP JUMPDEST PUSH2 0x2710 DUP2 GT ISZERO PUSH2 0x402 JUMPI PUSH1 0x40 MLOAD PUSH3 0x461BCD PUSH1 0xE5 SHL DUP2 MSTORE PUSH1 0x20 PUSH1 0x4 DUP3 ADD MSTORE PUSH1 0xC PUSH1 0x24 DUP3 ADD MSTORE PUSH12 0x8CCACA40E8DEDE40D0D2CED PUSH1 0xA3 SHL PUSH1 0x44 DUP3 ADD MSTORE PUSH1 0x64 ADD JUMPDEST PUSH1 0x40 MLOAD DUP1 SWAP2 SUB SWAP1 REVERT JUMPDEST PUSH1 0x6 DUP2 SWAP1 SSTORE PUSH1 0x40 MLOAD DUP2 DUP2 MSTORE PUSH32 0x45610D581145924DD7090A5017E5F2B1D6F42213BB2E95707FF86846BBFCB1CA SWAP1 PUSH1 0x20 ADD JUMPDEST PUSH1 0x40 MLOAD DUP1 SWAP2 SUB SWAP1 LOG1 POP JUMP JUMPDEST CALLER PUSH1 0x0 DUP2 DUP2 MSTORE PUSH1 0x4 PUSH1 0x20 MSTORE PUSH1 0x40 SWAP1 DUP2 SWAP1 KECCAK256 DUP4 SWAP1 SSTORE MLOAD PUSH32 0xAC566928846C6129B07721AF76E58FE5D8D9E6DF98589219A2CF7BA8708F2DB SWAP1 PUSH2 0x482 SWAP1 DUP5 DUP2 MSTORE PUSH1 0x20 ADD SWAP1 JUMP JUMPDEST PUSH1 0x40 MLOAD DUP1 SWAP2 SUB SWAP1 LOG2 POP JUMP JUMPDEST PUSH2 0x495 PUSH2 0x13B5 JUMP JUMPDEST PUSH1 0x0 PUSH2 0x4A0 DUP3 PUSH2 0x10AA JUMP JUMPDEST SWAP1 POP DUP1 ISZERO PUSH2 0x569 JUMPI PUSH1 0x2 SLOAD PUSH1 0x40 MLOAD PUSH4 0x23B872DD PUSH1 0xE0 SHL DUP2 MSTORE CALLER PUSH1 0x4 DUP3 ADD MSTORE ADDRESS PUSH1 0x24 DUP3 ADD MSTORE PUSH1 0x44 DUP2 ADD DUP4 SWAP1 MSTORE PUSH1 0x1 PUSH1 0x1 PUSH1 0xA0 SHL SUB SWAP1 SWAP2 AND SWAP1 PUSH4 0x23B872DD SWAP1 PUSH1 0x64 ADD PUSH1 0x20 PUSH1 0x40 MLOAD DUP1 DUP4 SUB DUP2 PUSH1 0x0 DUP8 GAS CALL ISZERO DUP1 ISZERO PUSH2 0x4FF JUMPI RETURNDATASIZE PUSH1 0x0 DUP1 RETURNDATACOPY RETURNDATASIZE PUSH1 0x0 REVERT JUMPDEST POP POP POP POP PUSH1 0x40 MLOAD RETURNDATASIZE PUSH1 0x1F NOT PUSH1 0x1F DUP3 ADD AND DUP3 ADD DUP1 PUSH1 0x40 MSTORE POP DUP2 ADD SWAP1 PUSH2 0x523 SWAP2 SWAP1 PUSH2 0x1D52 JUMP JUMPDEST PUSH2 0x569 JUMPI PUSH1 0x40 MLOAD PUSH3 0x461BCD PUSH1 0xE5 SHL DUP2 MSTORE PUSH1 0x20 PUSH1 0x4 DUP3 ADD MSTORE PUSH1 0x17 PUSH1 0x24 DUP3 ADD MSTORE PUSH23 0x14185E5B595B9D081D1C985B9CD9995C8819985A5B1959 PUSH1 0x4A SHL PUSH1 0x44 DUP3 ADD MSTORE PUSH1 0x64 ADD PUSH2 0x3F9 JUMP JUMPDEST PUSH1 0x7 SLOAD PUSH1 0x0 SWAP1 DUP2 MSTORE PUSH1 0x8 PUSH1 0x20 MSTORE PUSH1 0x40 DUP2 KECCAK256 DUP1 SLOAD PUSH1 0x1 PUSH1 0x1 PUSH1 0xA0 SHL SUB NOT AND CALLER OR DUP2 SSTORE TIMESTAMP PUSH1 0x2 DUP3 ADD SSTORE PUSH1 0x3 DUP2 ADD DUP1 SLOAD PUSH1 0xFF NOT AND PUSH1 0x1 OR SWAP1 SSTORE PUSH1 0x4 DUP2 ADD DUP4 SWAP1 SSTORE SWAP1 JUMPDEST DUP4 MLOAD DUP2 LT ISZERO PUSH2 0x748 JUMPI DUP2 PUSH1 0x1 ADD DUP5 DUP3 DUP2 MLOAD DUP2 LT PUSH2 0x5C7 JUMPI PUSH2 0x5C7 PUSH2 0x1D74 JUMP JUMPDEST PUSH1 0x20 SWAP1 DUP2 MUL SWAP2 SWAP1 SWAP2 ADD DUP2 ADD MLOAD DUP3 SLOAD PUSH1 0x1 DUP2 ADD DUP5 SSTORE PUSH1 0x0 SWAP4 DUP5 MSTORE SWAP2 DUP4 KECCAK256 SWAP1 SWAP2 ADD DUP1 SLOAD PUSH1 0x1 PUSH1 0x1 PUSH1 0xA0 SHL SUB NOT AND PUSH1 0x1 PUSH1 0x1 PUSH1 0xA0 SHL SUB SWAP1 SWAP3 AND SWAP2 SWAP1 SWAP2 OR SWAP1 SSTORE DUP5 MLOAD PUSH1 0x4 SWAP2 SWAP1 DUP7 SWAP1 DUP5 SWAP1 DUP2 LT PUSH2 0x61B JUMPI PUSH2 0x61B PUSH2 0x1D74 JUMP JUMPDEST PUSH1 0x20 MUL PUSH1 0x20 ADD ADD MLOAD PUSH1 0x1 PUSH1 0x1 PUSH1 0xA0 SHL SUB AND PUSH1 0x1 PUSH1 0x1 PUSH1 0xA0 SHL SUB AND DUP2 MSTORE PUSH1 0x20 ADD SWAP1 DUP2 MSTORE PUSH1 0x20 ADD PUSH1 0x0 KECCAK256 SLOAD PUSH1 0x5 PUSH1 0x0 PUSH1 0x7 SLOAD DUP2 MSTORE PUSH1 0x20 ADD SWAP1 DUP2 MSTORE PUSH1 0x20 ADD PUSH1 0x0 KECCAK256 PUSH1 0x0 DUP7 DUP5 DUP2 MLOAD DUP2 LT PUSH2 0x66D JUMPI PUSH2 0x66D PUSH2 0x1D74 JUMP JUMPDEST PUSH1 0x20 MUL PUSH1 0x20 ADD ADD MLOAD PUSH1 0x1 PUSH1 0x1 PUSH1 0xA0 SHL SUB AND PUSH1 0x1 PUSH1 0x1 PUSH1 0xA0 SHL SUB AND DUP2 MSTORE PUSH1 0x20 ADD SWAP1 DUP2 MSTORE PUSH1 0x20 ADD PUSH1 0x0 KECCAK256 DUP2 SWAP1 SSTORE POP DUP4 DUP2 DUP2 MLOAD DUP2 LT PUSH2 0x6AB JUMPI PUSH2 0x6AB PUSH2 0x1D74 JUMP JUMPDEST PUSH1 0x20 MUL PUSH1 0x20 ADD ADD MLOAD PUSH1 0x1 PUSH1 0x1 PUSH1 0xA0 SHL SUB AND PUSH1 0x7 SLOAD PUSH32 0x328CFB31557826BD0EE2AF22D41990313383E5254B4A543C6EEB1DBC72E8A42E PUSH1 0x4 PUSH1 0x0 DUP9 DUP7 DUP2 MLOAD DUP2 LT PUSH2 0x6F6 JUMPI PUSH2 0x6F6 PUSH2 0x1D74 JUMP JUMPDEST PUSH1 0x20 MUL PUSH1 0x20 ADD ADD MLOAD PUSH1 0x1 PUSH1 0x1 PUSH1 0xA0 SHL SUB AND PUSH1 0x1 PUSH1 0x1 PUSH1 0xA0 SHL SUB AND DUP2 MSTORE PUSH1 0x20 ADD SWAP1 DUP2 MSTORE PUSH1 0x20 ADD PUSH1 0x0 KECCAK256 SLOAD PUSH1 0x40 MLOAD PUSH2 0x72E SWAP2 DUP2 MSTORE PUSH1 0x20 ADD SWAP1 JUMP JUMPDEST PUSH1 0x40 MLOAD DUP1 SWAP2 SUB SWAP1 LOG3 DUP1 PUSH2 0x740 DUP2 PUSH2 0x1DA0 JUMP JUMPDEST SWAP2 POP POP PUSH2 0x5A8 JUMP JUMPDEST POP PUSH1 0x7 SLOAD PUSH1 0x40 MLOAD DUP4 DUP2 MSTORE CALLER SWAP2 SWAP1 PUSH32 0x28EB86FD03C9BD96A8A83E4A46AB2AD257B70CEA893D98AD6D482E96AA25FAD0 SWAP1 PUSH1 0x20 ADD PUSH1 0x40 MLOAD DUP1 SWAP2 SUB SWAP1 LOG3 PUSH1 0x7 DUP1 SLOAD SWAP1 PUSH1 0x0 PUSH2 0x792 DUP4 PUSH2 0x1DA0 JUMP JUMPDEST SWAP2 SWAP1 POP SSTORE POP POP POP PUSH2 0x7A2 PUSH1 0x1 DUP1 SSTORE JUMP JUMPDEST POP JUMP JUMPDEST PUSH2 0x7AD PUSH2 0x135B JUMP JUMPDEST PUSH2 0x7B5 PUSH2 0x13B5 JUMP JUMPDEST PUSH1 0x2 SLOAD PUSH1 0x1 PUSH1 0x1 PUSH1 0xA0 SHL SUB AND PUSH4 0xA9059CBB PUSH2 0x7D8 PUSH1 0x0 SLOAD PUSH1 0x1 PUSH1 0x1 PUSH1 0xA0 SHL SUB AND SWAP1 JUMP JUMPDEST PUSH1 0x40 MLOAD PUSH1 0x1 PUSH1 0x1 PUSH1 0xE0 SHL SUB NOT PUSH1 0xE0 DUP5 SWAP1 SHL AND DUP2 MSTORE PUSH1 0x1 PUSH1 0x1 PUSH1 0xA0 SHL SUB SWAP1 SWAP2 AND PUSH1 0x4 DUP3 ADD MSTORE PUSH1 0x24 DUP2 ADD DUP5 SWAP1 MSTORE PUSH1 0x44 ADD PUSH1 0x20 PUSH1 0x40 MLOAD DUP1 DUP4 SUB DUP2 PUSH1 0x0 DUP8 GAS CALL ISZERO DUP1 ISZERO PUSH2 0x825 JUMPI RETURNDATASIZE PUSH1 0x0 DUP1 RETURNDATACOPY RETURNDATASIZE PUSH1 0x0 REVERT JUMPDEST POP POP POP POP PUSH1 0x40 MLOAD RETURNDATASIZE PUSH1 0x1F NOT PUSH1 0x1F DUP3 ADD AND DUP3 ADD DUP1 PUSH1 0x40 MSTORE POP DUP2 ADD SWAP1 PUSH2 0x849 SWAP2 SWAP1 PUSH2 0x1D52 JUMP JUMPDEST PUSH2 0x889 JUMPI PUSH1 0x40 MLOAD PUSH3 0x461BCD PUSH1 0xE5 SHL DUP2 MSTORE PUSH1 0x20 PUSH1 0x4 DUP3 ADD MSTORE PUSH1 0x11 PUSH1 0x24 DUP3 ADD MSTORE PUSH17 0x15DA5D1A191C985DD85B0819985A5B1959 PUSH1 0x7A SHL PUSH1 0x44 DUP3 ADD MSTORE PUSH1 0x64 ADD PUSH2 0x3F9 JUMP JUMPDEST PUSH2 0x7A2 PUSH1 0x1 DUP1 SSTORE JUMP JUMPDEST PUSH2 0x89A PUSH2 0x135B JUMP JUMPDEST PUSH1 0x3 SSTORE JUMP JUMPDEST PUSH2 0x8A7 PUSH2 0x13B5 JUMP JUMPDEST PUSH1 0x0 DUP2 DUP2 MSTORE PUSH1 0x8 PUSH1 0x20 MSTORE PUSH1 0x40 SWAP1 KECCAK256 PUSH2 0x8BF DUP2 CALLER PUSH2 0x140E JUMP JUMPDEST PUSH2 0x916 JUMPI PUSH1 0x40 MLOAD PUSH3 0x461BCD PUSH1 0xE5 SHL DUP2 MSTORE PUSH1 0x20 PUSH1 0x4 DUP3 ADD MSTORE PUSH1 0x22 PUSH1 0x24 DUP3 ADD MSTORE PUSH32 0x4F6E6C792061737369676E656420677561726469616E2063616E207472696767 PUSH1 0x44 DUP3 ADD MSTORE PUSH2 0x32B9 PUSH1 0xF1 SHL PUSH1 0x64 DUP3 ADD MSTORE PUSH1 0x84 ADD PUSH2 0x3F9 JUMP JUMPDEST PUSH1 0x3 SLOAD PUSH1 0x0 DUP4 DUP2 MSTORE PUSH1 0x8 PUSH1 0x20 MSTORE PUSH1 0x40 SWAP1 KECCAK256 PUSH1 0x2 ADD SLOAD PUSH2 0x935 SWAP2 SWAP1 PUSH2 0x1DB9 JUMP JUMPDEST TIMESTAMP GT PUSH2 0x983 JUMPI PUSH1 0x40 MLOAD PUSH3 0x461BCD PUSH1 0xE5 SHL DUP2 MSTORE PUSH1 0x20 PUSH1 0x4 DUP3 ADD MSTORE PUSH1 0x1E PUSH1 0x24 DUP3 ADD MSTORE PUSH32 0x4F72646572206475726174696F6E206E6F742079657420657870697265640000 PUSH1 0x44 DUP3 ADD MSTORE PUSH1 0x64 ADD PUSH2 0x3F9 JUMP JUMPDEST PUSH2 0x98C DUP3 PUSH2 0x147F JUMP JUMPDEST PUSH1 0x40 MLOAD CALLER SWAP1 DUP4 SWAP1 PUSH32 0x14F735D5FCF12036A5146349C08CFEDEC3D13E64847008D65D08F4713F23E8B3 SWAP1 PUSH1 0x0 SWAP1 LOG3 POP PUSH2 0x7A2 PUSH1 0x1 DUP1 SSTORE JUMP JUMPDEST PUSH2 0x9CB PUSH2 0x135B JUMP JUMPDEST PUSH1 0x1 PUSH1 0x1 PUSH1 0xA0 SHL SUB DUP2 AND PUSH2 0xA19 JUMPI PUSH1 0x40 MLOAD PUSH3 0x461BCD PUSH1 0xE5 SHL DUP2 MSTORE PUSH1 0x20 PUSH1 0x4 DUP3 ADD MSTORE PUSH1 0x15 PUSH1 0x24 DUP3 ADD MSTORE PUSH21 0x496E76616C696420746F6B656E2061646472657373 PUSH1 0x58 SHL PUSH1 0x44 DUP3 ADD MSTORE PUSH1 0x64 ADD PUSH2 0x3F9 JUMP JUMPDEST PUSH1 0x2 DUP1 SLOAD PUSH1 0x1 PUSH1 0x1 PUSH1 0xA0 SHL SUB NOT AND PUSH1 0x1 PUSH1 0x1 PUSH1 0xA0 SHL SUB DUP4 AND SWAP1 DUP2 OR SWAP1 SWAP2 SSTORE PUSH1 0x40 MLOAD SWAP1 DUP2 MSTORE PUSH32 0xBD4032C1C91DA2791730EA1BBC82C6B6F857DA7C0A8318143D19EF74E62CD913 SWAP1 PUSH1 0x20 ADD PUSH2 0x433 JUMP JUMPDEST PUSH2 0xA6F PUSH2 0x135B JUMP JUMPDEST PUSH2 0xA79 PUSH1 0x0 PUSH2 0x16AC JUMP JUMPDEST JUMP JUMPDEST PUSH2 0xA83 PUSH2 0x135B JUMP JUMPDEST DUP3 DUP2 EQ PUSH2 0xADE JUMPI PUSH1 0x40 MLOAD PUSH3 0x461BCD PUSH1 0xE5 SHL DUP2 MSTORE PUSH1 0x20 PUSH1 0x4 DUP3 ADD MSTORE PUSH1 0x24 DUP1 DUP3 ADD MSTORE PUSH32 0x477561726469616E7320616E6420707269636573206C656E677468206D69736D PUSH1 0x44 DUP3 ADD MSTORE PUSH4 0xC2E8C6D PUSH1 0xE3 SHL PUSH1 0x64 DUP3 ADD MSTORE PUSH1 0x84 ADD PUSH2 0x3F9 JUMP JUMPDEST PUSH1 0x0 JUMPDEST DUP4 DUP2 LT ISZERO PUSH2 0xBDA JUMPI DUP3 DUP3 DUP3 DUP2 DUP2 LT PUSH2 0xAFB JUMPI PUSH2 0xAFB PUSH2 0x1D74 JUMP JUMPDEST SWAP1 POP PUSH1 0x20 MUL ADD CALLDATALOAD PUSH1 0x4 PUSH1 0x0 DUP8 DUP8 DUP6 DUP2 DUP2 LT PUSH2 0xB18 JUMPI PUSH2 0xB18 PUSH2 0x1D74 JUMP JUMPDEST SWAP1 POP PUSH1 0x20 MUL ADD PUSH1 0x20 DUP2 ADD SWAP1 PUSH2 0xB2D SWAP2 SWAP1 PUSH2 0x1A10 JUMP JUMPDEST PUSH1 0x1 PUSH1 0x1 PUSH1 0xA0 SHL SUB AND DUP2 MSTORE PUSH1 0x20 DUP2 ADD SWAP2 SWAP1 SWAP2 MSTORE PUSH1 0x40 ADD PUSH1 0x0 KECCAK256 SSTORE DUP5 DUP5 DUP3 DUP2 DUP2 LT PUSH2 0xB59 JUMPI PUSH2 0xB59 PUSH2 0x1D74 JUMP JUMPDEST SWAP1 POP PUSH1 0x20 MUL ADD PUSH1 0x20 DUP2 ADD SWAP1 PUSH2 0xB6E SWAP2 SWAP1 PUSH2 0x1A10 JUMP JUMPDEST PUSH1 0x1 PUSH1 0x1 PUSH1 0xA0 SHL SUB AND PUSH32 0xAC566928846C6129B07721AF76E58FE5D8D9E6DF98589219A2CF7BA8708F2DB DUP5 DUP5 DUP5 DUP2 DUP2 LT PUSH2 0xBAA JUMPI PUSH2 0xBAA PUSH2 0x1D74 JUMP JUMPDEST SWAP1 POP PUSH1 0x20 MUL ADD CALLDATALOAD PUSH1 0x40 MLOAD PUSH2 0xBC0 SWAP2 DUP2 MSTORE PUSH1 0x20 ADD SWAP1 JUMP JUMPDEST PUSH1 0x40 MLOAD DUP1 SWAP2 SUB SWAP1 LOG2 DUP1 PUSH2 0xBD2 DUP2 PUSH2 0x1DA0 JUMP JUMPDEST SWAP2 POP POP PUSH2 0xAE1 JUMP JUMPDEST POP POP POP POP POP JUMP JUMPDEST PUSH2 0xBE9 PUSH2 0x135B JUMP JUMPDEST PUSH2 0xBF1 PUSH2 0x13B5 JUMP JUMPDEST PUSH1 0x0 DUP1 SLOAD PUSH1 0x40 MLOAD PUSH1 0x1 PUSH1 0x1 PUSH1 0xA0 SHL SUB SWAP1 SWAP2 AND SWAP2 SELFBALANCE DUP1 ISZERO PUSH2 0x8FC MUL SWAP3 SWAP1 SWAP2 DUP2 DUP2 DUP2 DUP6 DUP9 DUP9 CALL SWAP4 POP POP POP POP ISZERO DUP1 ISZERO PUSH2 0xC2B JUMPI RETURNDATASIZE PUSH1 0x0 DUP1 RETURNDATACOPY RETURNDATASIZE PUSH1 0x0 REVERT JUMPDEST POP PUSH2 0xA79 PUSH1 0x1 DUP1 SSTORE JUMP JUMPDEST PUSH2 0xC3D PUSH2 0x13B5 JUMP JUMPDEST PUSH1 0x0 DUP6 DUP2 MSTORE PUSH1 0x8 PUSH1 0x20 MSTORE PUSH1 0x40 SWAP1 KECCAK256 SLOAD PUSH1 0x1 PUSH1 0x1 PUSH1 0xA0 SHL SUB AND CALLER EQ PUSH2 0xCB3 JUMPI PUSH1 0x40 MLOAD PUSH3 0x461BCD PUSH1 0xE5 SHL DUP2 MSTORE PUSH1 0x20 PUSH1 0x4 DUP3 ADD MSTORE PUSH1 0x27 PUSH1 0x24 DUP3 ADD MSTORE PUSH32 0x4F6E6C79206F726465722063726561746F722063616E206368616E6765206775 PUSH1 0x44 DUP3 ADD MSTORE PUSH7 0x61726469616E73 PUSH1 0xC8 SHL PUSH1 0x64 DUP3 ADD MSTORE PUSH1 0x84 ADD PUSH2 0x3F9 JUMP JUMPDEST PUSH1 0x0 DUP6 DUP2 MSTORE PUSH1 0x8 PUSH1 0x20 MSTORE PUSH1 0x40 SWAP1 KECCAK256 PUSH1 0x3 ADD SLOAD PUSH1 0xFF AND PUSH2 0xD0A JUMPI PUSH1 0x40 MLOAD PUSH3 0x461BCD PUSH1 0xE5 SHL DUP2 MSTORE PUSH1 0x20 PUSH1 0x4 DUP3 ADD MSTORE PUSH1 0x13 PUSH1 0x24 DUP3 ADD MSTORE PUSH19 0x4F72646572206973206E6F7420616374697665 PUSH1 0x68 SHL PUSH1 0x44 DUP3 ADD MSTORE PUSH1 0x64 ADD PUSH2 0x3F9 JUMP JUMPDEST PUSH1 0x0 PUSH2 0xD48 DUP6 DUP6 DUP1 DUP1 PUSH1 0x20 MUL PUSH1 0x20 ADD PUSH1 0x40 MLOAD SWAP1 DUP2 ADD PUSH1 0x40 MSTORE DUP1 SWAP4 SWAP3 SWAP2 SWAP1 DUP2 DUP2 MSTORE PUSH1 0x20 ADD DUP4 DUP4 PUSH1 0x20 MUL DUP1 DUP3 DUP5 CALLDATACOPY PUSH1 0x0 SWAP3 ADD SWAP2 SWAP1 SWAP2 MSTORE POP PUSH2 0x10AA SWAP3 POP POP POP JUMP JUMPDEST SWAP1 POP PUSH1 0x0 PUSH2 0xD88 DUP5 DUP5 DUP1 DUP1 PUSH1 0x20 MUL PUSH1 0x20 ADD PUSH1 0x40 MLOAD SWAP1 DUP2 ADD PUSH1 0x40 MSTORE DUP1 SWAP4 SWAP3 SWAP2 SWAP1 DUP2 DUP2 MSTORE PUSH1 0x20 ADD DUP4 DUP4 PUSH1 0x20 MUL DUP1 DUP3 DUP5 CALLDATACOPY PUSH1 0x0 SWAP3 ADD SWAP2 SWAP1 SWAP2 MSTORE POP PUSH2 0x10AA SWAP3 POP POP POP JUMP JUMPDEST SWAP1 POP DUP1 DUP3 GT ISZERO PUSH2 0xE72 JUMPI PUSH1 0x2 SLOAD PUSH1 0x1 PUSH1 0x1 PUSH1 0xA0 SHL SUB AND PUSH4 0x23B872DD CALLER ADDRESS PUSH2 0xDAF DUP6 DUP8 PUSH2 0x1DCC JUMP JUMPDEST PUSH1 0x40 MLOAD PUSH1 0x1 PUSH1 0x1 PUSH1 0xE0 SHL SUB NOT PUSH1 0xE0 DUP7 SWAP1 SHL AND DUP2 MSTORE PUSH1 0x1 PUSH1 0x1 PUSH1 0xA0 SHL SUB SWAP4 DUP5 AND PUSH1 0x4 DUP3 ADD MSTORE SWAP3 SWAP1 SWAP2 AND PUSH1 0x24 DUP4 ADD MSTORE PUSH1 0x44 DUP3 ADD MSTORE PUSH1 0x64 ADD PUSH1 0x20 PUSH1 0x40 MLOAD DUP1 DUP4 SUB DUP2 PUSH1 0x0 DUP8 GAS CALL ISZERO DUP1 ISZERO PUSH2 0xE03 JUMPI RETURNDATASIZE PUSH1 0x0 DUP1 RETURNDATACOPY RETURNDATASIZE PUSH1 0x0 REVERT JUMPDEST POP POP POP POP PUSH1 0x40 MLOAD RETURNDATASIZE PUSH1 0x1F NOT PUSH1 0x1F DUP3 ADD AND DUP3 ADD DUP1 PUSH1 0x40 MSTORE POP DUP2 ADD SWAP1 PUSH2 0xE27 SWAP2 SWAP1 PUSH2 0x1D52 JUMP JUMPDEST PUSH2 0xE6D JUMPI PUSH1 0x40 MLOAD PUSH3 0x461BCD PUSH1 0xE5 SHL DUP2 MSTORE PUSH1 0x20 PUSH1 0x4 DUP3 ADD MSTORE PUSH1 0x17 PUSH1 0x24 DUP3 ADD MSTORE PUSH23 0x14185E5B595B9D081D1C985B9CD9995C8819985A5B1959 PUSH1 0x4A SHL PUSH1 0x44 DUP3 ADD MSTORE PUSH1 0x64 ADD PUSH2 0x3F9 JUMP JUMPDEST PUSH2 0xF4A JUMP JUMPDEST DUP2 DUP2 GT ISZERO PUSH2 0xF4A JUMPI PUSH1 0x2 SLOAD PUSH1 0x1 PUSH1 0x1 PUSH1 0xA0 SHL SUB AND PUSH4 0xA9059CBB CALLER PUSH2 0xE96 DUP6 DUP6 PUSH2 0x1DCC JUMP JUMPDEST PUSH1 0x40 MLOAD PUSH1 0x1 PUSH1 0x1 PUSH1 0xE0 SHL SUB NOT PUSH1 0xE0 DUP6 SWAP1 SHL AND DUP2 MSTORE PUSH1 0x1 PUSH1 0x1 PUSH1 0xA0 SHL SUB SWAP1 SWAP3 AND PUSH1 0x4 DUP4 ADD MSTORE PUSH1 0x24 DUP3 ADD MSTORE PUSH1 0x44 ADD PUSH1 0x20 PUSH1 0x40 MLOAD DUP1 DUP4 SUB DUP2 PUSH1 0x0 DUP8 GAS CALL ISZERO DUP1 ISZERO PUSH2 0xEE1 JUMPI RETURNDATASIZE PUSH1 0x0 DUP1 RETURNDATACOPY RETURNDATASIZE PUSH1 0x0 REVERT JUMPDEST POP POP POP POP PUSH1 0x40 MLOAD RETURNDATASIZE PUSH1 0x1F NOT PUSH1 0x1F DUP3 ADD AND DUP3 ADD DUP1 PUSH1 0x40 MSTORE POP DUP2 ADD SWAP1 PUSH2 0xF05 SWAP2 SWAP1 PUSH2 0x1D52 JUMP JUMPDEST PUSH2 0xF4A JUMPI PUSH1 0x40 MLOAD PUSH3 0x461BCD PUSH1 0xE5 SHL DUP2 MSTORE PUSH1 0x20 PUSH1 0x4 DUP3 ADD MSTORE PUSH1 0x16 PUSH1 0x24 DUP3 ADD MSTORE PUSH22 0x1499599D5B99081D1C985B9CD9995C8819985A5B1959 PUSH1 0x52 SHL PUSH1 0x44 DUP3 ADD MSTORE PUSH1 0x64 ADD PUSH2 0x3F9 JUMP JUMPDEST PUSH1 0x0 JUMPDEST DUP6 DUP2 LT ISZERO PUSH2 0xF97 JUMPI PUSH2 0xF85 DUP9 DUP9 DUP9 DUP5 DUP2 DUP2 LT PUSH2 0xF6B JUMPI PUSH2 0xF6B PUSH2 0x1D74 JUMP JUMPDEST SWAP1 POP PUSH1 0x20 MUL ADD PUSH1 0x20 DUP2 ADD SWAP1 PUSH2 0xF80 SWAP2 SWAP1 PUSH2 0x1A10 JUMP JUMPDEST PUSH2 0x16FC JUMP JUMPDEST DUP1 PUSH2 0xF8F DUP2 PUSH2 0x1DA0 JUMP JUMPDEST SWAP2 POP POP PUSH2 0xF4D JUMP JUMPDEST POP PUSH1 0x0 JUMPDEST DUP4 DUP2 LT ISZERO PUSH2 0xFE5 JUMPI PUSH2 0xFD3 DUP9 DUP7 DUP7 DUP5 DUP2 DUP2 LT PUSH2 0xFB9 JUMPI PUSH2 0xFB9 PUSH2 0x1D74 JUMP JUMPDEST SWAP1 POP PUSH1 0x20 MUL ADD PUSH1 0x20 DUP2 ADD SWAP1 PUSH2 0xFCE SWAP2 SWAP1 PUSH2 0x1A10 JUMP JUMPDEST PUSH2 0x1838 JUMP JUMPDEST DUP1 PUSH2 0xFDD DUP2 PUSH2 0x1DA0 JUMP JUMPDEST SWAP2 POP POP PUSH2 0xF9B JUMP JUMPDEST POP POP POP PUSH2 0xBDA PUSH1 0x1 DUP1 SSTORE JUMP JUMPDEST PUSH2 0xFF9 PUSH2 0x13B5 JUMP JUMPDEST PUSH1 0x0 DUP2 DUP2 MSTORE PUSH1 0x8 PUSH1 0x20 MSTORE PUSH1 0x40 SWAP1 KECCAK256 SLOAD PUSH1 0x1 PUSH1 0x1 PUSH1 0xA0 SHL SUB AND CALLER EQ PUSH2 0x106D JUMPI PUSH1 0x40 MLOAD PUSH3 0x461BCD PUSH1 0xE5 SHL DUP2 MSTORE PUSH1 0x20 PUSH1 0x4 DUP3 ADD MSTORE PUSH1 0x25 PUSH1 0x24 DUP3 ADD MSTORE PUSH32 0x4F6E6C79206F726465722063726561746F722063616E20636F6D706C65746520 PUSH1 0x44 DUP3 ADD MSTORE PUSH5 0x37B93232B9 PUSH1 0xD9 SHL PUSH1 0x64 DUP3 ADD MSTORE PUSH1 0x84 ADD PUSH2 0x3F9 JUMP JUMPDEST PUSH2 0x1076 DUP2 PUSH2 0x147F JUMP JUMPDEST PUSH1 0x40 MLOAD DUP2 SWAP1 PUSH32 0x2A7D4D9472AF7118644884B9A0EE443540C0027E938DD0AA35BE8ECBE946C0A SWAP1 PUSH1 0x0 SWAP1 LOG2 PUSH2 0x7A2 PUSH1 0x1 DUP1 SSTORE JUMP JUMPDEST PUSH1 0x0 DUP1 JUMPDEST DUP3 MLOAD DUP2 LT ISZERO PUSH2 0x1115 JUMPI PUSH1 0x4 PUSH1 0x0 DUP5 DUP4 DUP2 MLOAD DUP2 LT PUSH2 0x10CD JUMPI PUSH2 0x10CD PUSH2 0x1D74 JUMP JUMPDEST PUSH1 0x20 MUL PUSH1 0x20 ADD ADD MLOAD PUSH1 0x1 PUSH1 0x1 PUSH1 0xA0 SHL SUB AND PUSH1 0x1 PUSH1 0x1 PUSH1 0xA0 SHL SUB AND DUP2 MSTORE PUSH1 0x20 ADD SWAP1 DUP2 MSTORE PUSH1 0x20 ADD PUSH1 0x0 KECCAK256 SLOAD DUP3 PUSH2 0x1101 SWAP2 SWAP1 PUSH2 0x1DB9 JUMP JUMPDEST SWAP2 POP DUP1 PUSH2 0x110D DUP2 PUSH2 0x1DA0 JUMP JUMPDEST SWAP2 POP POP PUSH2 0x10AE JUMP JUMPDEST POP SWAP2 SWAP1 POP JUMP JUMPDEST PUSH1 0x2 SLOAD PUSH1 0x40 DUP1 MLOAD PUSH1 0x20 DUP1 DUP10 MUL DUP3 DUP2 ADD DUP3 ADD SWAP1 SWAP4 MSTORE DUP9 DUP3 MSTORE PUSH1 0x1 PUSH1 0x1 PUSH1 0xA0 SHL SUB SWAP1 SWAP4 AND SWAP3 PUSH4 0xD505ACCF SWAP3 CALLER SWAP3 ADDRESS SWAP3 PUSH2 0x116D SWAP3 DUP14 SWAP2 DUP14 SWAP2 DUP3 SWAP2 DUP6 ADD SWAP1 DUP5 SWAP1 DUP1 DUP3 DUP5 CALLDATACOPY PUSH1 0x0 SWAP3 ADD SWAP2 SWAP1 SWAP2 MSTORE POP PUSH2 0x10AA SWAP3 POP POP POP JUMP JUMPDEST PUSH1 0x40 MLOAD PUSH1 0x1 PUSH1 0x1 PUSH1 0xE0 SHL SUB NOT PUSH1 0xE0 DUP7 SWAP1 SHL AND DUP2 MSTORE PUSH1 0x1 PUSH1 0x1 PUSH1 0xA0 SHL SUB SWAP4 DUP5 AND PUSH1 0x4 DUP3 ADD MSTORE SWAP3 SWAP1 SWAP2 AND PUSH1 0x24 DUP4 ADD MSTORE PUSH1 0x44 DUP3 ADD MSTORE PUSH1 0x64 DUP2 ADD DUP8 SWAP1 MSTORE PUSH1 0xFF DUP7 AND PUSH1 0x84 DUP3 ADD MSTORE PUSH1 0xA4 DUP2 ADD DUP6 SWAP1 MSTORE PUSH1 0xC4 DUP2 ADD DUP5 SWAP1 MSTORE PUSH1 0xE4 ADD PUSH1 0x0 PUSH1 0x40 MLOAD DUP1 DUP4 SUB DUP2 PUSH1 0x0 DUP8 DUP1 EXTCODESIZE ISZERO DUP1 ISZERO PUSH2 0x11DA JUMPI PUSH1 0x0 DUP1 REVERT JUMPDEST POP GAS CALL ISZERO DUP1 ISZERO PUSH2 0x11EE JUMPI RETURNDATASIZE PUSH1 0x0 DUP1 RETURNDATACOPY RETURNDATASIZE PUSH1 0x0 REVERT JUMPDEST POP POP POP POP PUSH2 0x122E DUP7 DUP7 DUP1 DUP1 PUSH1 0x20 MUL PUSH1 0x20 ADD PUSH1 0x40 MLOAD SWAP1 DUP2 ADD PUSH1 0x40 MSTORE DUP1 SWAP4 SWAP3 SWAP2 SWAP1 DUP2 DUP2 MSTORE PUSH1 0x20 ADD DUP4 DUP4 PUSH1 0x20 MUL DUP1 DUP3 DUP5 CALLDATACOPY PUSH1 0x0 SWAP3 ADD SWAP2 SWAP1 SWAP2 MSTORE POP PUSH2 0x48D SWAP3 POP POP POP JUMP JUMPDEST POP POP POP POP POP POP JUMP JUMPDEST PUSH1 0x0 DUP2 DUP2 MSTORE PUSH1 0x8 PUSH1 0x20 SWAP1 DUP2 MSTORE PUSH1 0x40 DUP1 DUP4 KECCAK256 DUP1 SLOAD PUSH1 0x2 DUP3 ADD SLOAD PUSH1 0x3 DUP4 ADD SLOAD PUSH1 0x4 DUP5 ADD SLOAD PUSH1 0x1 DUP6 ADD DUP1 SLOAD DUP8 MLOAD DUP2 DUP11 MUL DUP2 ADD DUP11 ADD SWAP1 SWAP9 MSTORE DUP1 DUP9 MSTORE PUSH1 0x60 SWAP9 DUP11 SWAP9 DUP10 SWAP9 DUP10 SWAP9 SWAP1 SWAP8 PUSH1 0x1 PUSH1 0x1 PUSH1 0xA0 SHL SUB SWAP1 SWAP2 AND SWAP7 SWAP5 SWAP6 SWAP1 SWAP5 PUSH1 0xFF AND SWAP4 SWAP1 SWAP3 DUP7 SWAP2 SWAP1 DUP4 ADD DUP3 DUP3 DUP1 ISZERO PUSH2 0x12CA JUMPI PUSH1 0x20 MUL DUP3 ADD SWAP2 SWAP1 PUSH1 0x0 MSTORE PUSH1 0x20 PUSH1 0x0 KECCAK256 SWAP1 JUMPDEST DUP2 SLOAD PUSH1 0x1 PUSH1 0x1 PUSH1 0xA0 SHL SUB AND DUP2 MSTORE PUSH1 0x1 SWAP1 SWAP2 ADD SWAP1 PUSH1 0x20 ADD DUP1 DUP4 GT PUSH2 0x12AC JUMPI JUMPDEST POP POP POP POP POP SWAP4 POP SWAP6 POP SWAP6 POP SWAP6 POP SWAP6 POP SWAP6 POP POP SWAP2 SWAP4 SWAP6 SWAP1 SWAP3 SWAP5 POP JUMP JUMPDEST PUSH2 0x12ED PUSH2 0x135B JUMP JUMPDEST PUSH1 0x1 PUSH1 0x1 PUSH1 0xA0 SHL SUB DUP2 AND PUSH2 0x1352 JUMPI PUSH1 0x40 MLOAD PUSH3 0x461BCD PUSH1 0xE5 SHL DUP2 MSTORE PUSH1 0x20 PUSH1 0x4 DUP3 ADD MSTORE PUSH1 0x26 PUSH1 0x24 DUP3 ADD MSTORE PUSH32 0x4F776E61626C653A206E6577206F776E657220697320746865207A65726F2061 PUSH1 0x44 DUP3 ADD MSTORE PUSH6 0x646472657373 PUSH1 0xD0 SHL PUSH1 0x64 DUP3 ADD MSTORE PUSH1 0x84 ADD PUSH2 0x3F9 JUMP JUMPDEST PUSH2 0x7A2 DUP2 PUSH2 0x16AC JUMP JUMPDEST PUSH1 0x0 SLOAD PUSH1 0x1 PUSH1 0x1 PUSH1 0xA0 SHL SUB AND CALLER EQ PUSH2 0xA79 JUMPI PUSH1 0x40 MLOAD PUSH3 0x461BCD PUSH1 0xE5 SHL DUP2 MSTORE PUSH1 0x20 PUSH1 0x4 DUP3 ADD DUP2 SWAP1 MSTORE PUSH1 0x24 DUP3 ADD MSTORE PUSH32 0x4F776E61626C653A2063616C6C6572206973206E6F7420746865206F776E6572 PUSH1 0x44 DUP3 ADD MSTORE PUSH1 0x64 ADD PUSH2 0x3F9 JUMP JUMPDEST PUSH1 0x2 PUSH1 0x1 SLOAD SUB PUSH2 0x1407 JUMPI PUSH1 0x40 MLOAD PUSH3 0x461BCD PUSH1 0xE5 SHL DUP2 MSTORE PUSH1 0x20 PUSH1 0x4 DUP3 ADD MSTORE PUSH1 0x1F PUSH1 0x24 DUP3 ADD MSTORE PUSH32 0x5265656E7472616E637947756172643A207265656E7472616E742063616C6C00 PUSH1 0x44 DUP3 ADD MSTORE PUSH1 0x64 ADD PUSH2 0x3F9 JUMP JUMPDEST PUSH1 0x2 PUSH1 0x1 SSTORE JUMP JUMPDEST PUSH1 0x0 DUP1 JUMPDEST PUSH1 0x1 DUP5 ADD SLOAD DUP2 LT ISZERO PUSH2 0x1473 JUMPI DUP3 PUSH1 0x1 PUSH1 0x1 PUSH1 0xA0 SHL SUB AND DUP5 PUSH1 0x1 ADD DUP3 DUP2 SLOAD DUP2 LT PUSH2 0x143D JUMPI PUSH2 0x143D PUSH2 0x1D74 JUMP JUMPDEST PUSH1 0x0 SWAP2 DUP3 MSTORE PUSH1 0x20 SWAP1 SWAP2 KECCAK256 ADD SLOAD PUSH1 0x1 PUSH1 0x1 PUSH1 0xA0 SHL SUB AND SUB PUSH2 0x1461 JUMPI PUSH1 0x1 SWAP2 POP POP PUSH2 0x1479 JUMP JUMPDEST DUP1 PUSH2 0x146B DUP2 PUSH2 0x1DA0 JUMP JUMPDEST SWAP2 POP POP PUSH2 0x1412 JUMP JUMPDEST POP PUSH1 0x0 SWAP1 POP JUMPDEST SWAP3 SWAP2 POP POP JUMP JUMPDEST PUSH1 0x0 DUP2 DUP2 MSTORE PUSH1 0x8 PUSH1 0x20 MSTORE PUSH1 0x40 SWAP1 KECCAK256 PUSH1 0x3 DUP2 ADD SLOAD PUSH1 0xFF AND PUSH2 0x14F1 JUMPI PUSH1 0x40 MLOAD PUSH3 0x461BCD PUSH1 0xE5 SHL DUP2 MSTORE PUSH1 0x20 PUSH1 0x4 DUP3 ADD MSTORE PUSH1 0x27 PUSH1 0x24 DUP3 ADD MSTORE PUSH32 0x4F7264657220697320616C726561647920636F6D706C65746564206F72206361 PUSH1 0x44 DUP3 ADD MSTORE PUSH7 0x1B98D95B1B1959 PUSH1 0xCA SHL PUSH1 0x64 DUP3 ADD MSTORE PUSH1 0x84 ADD PUSH2 0x3F9 JUMP JUMPDEST PUSH1 0x1 DUP2 ADD SLOAD PUSH1 0x4 DUP3 ADD SLOAD ISZERO PUSH2 0x169D JUMPI PUSH1 0x0 JUMPDEST DUP2 DUP2 LT ISZERO PUSH2 0x169B JUMPI PUSH1 0x0 DUP4 PUSH1 0x1 ADD DUP3 DUP2 SLOAD DUP2 LT PUSH2 0x1522 JUMPI PUSH2 0x1522 PUSH2 0x1D74 JUMP JUMPDEST PUSH1 0x0 SWAP2 DUP3 MSTORE PUSH1 0x20 DUP1 DUP4 KECCAK256 SWAP1 SWAP2 ADD SLOAD DUP8 DUP4 MSTORE PUSH1 0x5 DUP3 MSTORE PUSH1 0x40 DUP1 DUP5 KECCAK256 PUSH1 0x1 PUSH1 0x1 PUSH1 0xA0 SHL SUB SWAP1 SWAP3 AND DUP1 DUP6 MSTORE SWAP2 SWAP1 SWAP3 MSTORE SWAP1 DUP3 KECCAK256 SLOAD PUSH1 0x6 SLOAD SWAP2 SWAP4 POP SWAP2 SWAP1 PUSH2 0x2710 SWAP1 PUSH2 0x1568 SWAP1 DUP3 PUSH2 0x1DCC JUMP JUMPDEST PUSH2 0x1572 SWAP1 DUP5 PUSH2 0x1DDF JUMP JUMPDEST PUSH2 0x157C SWAP2 SWAP1 PUSH2 0x1DF6 JUMP JUMPDEST PUSH1 0x2 SLOAD PUSH1 0x40 MLOAD PUSH4 0xA9059CBB PUSH1 0xE0 SHL DUP2 MSTORE PUSH1 0x1 PUSH1 0x1 PUSH1 0xA0 SHL SUB DUP7 DUP2 AND PUSH1 0x4 DUP4 ADD MSTORE PUSH1 0x24 DUP3 ADD DUP5 SWAP1 MSTORE SWAP3 SWAP4 POP SWAP2 AND SWAP1 PUSH4 0xA9059CBB SWAP1 PUSH1 0x44 ADD PUSH1 0x20 PUSH1 0x40 MLOAD DUP1 DUP4 SUB DUP2 PUSH1 0x0 DUP8 GAS CALL ISZERO DUP1 ISZERO PUSH2 0x15D1 JUMPI RETURNDATASIZE PUSH1 0x0 DUP1 RETURNDATACOPY RETURNDATASIZE PUSH1 0x0 REVERT JUMPDEST POP POP POP POP PUSH1 0x40 MLOAD RETURNDATASIZE PUSH1 0x1F NOT PUSH1 0x1F DUP3 ADD AND DUP3 ADD DUP1 PUSH1 0x40 MSTORE POP DUP2 ADD SWAP1 PUSH2 0x15F5 SWAP2 SWAP1 PUSH2 0x1D52 JUMP JUMPDEST PUSH2 0x1641 JUMPI PUSH1 0x40 MLOAD PUSH3 0x461BCD PUSH1 0xE5 SHL DUP2 MSTORE PUSH1 0x20 PUSH1 0x4 DUP3 ADD MSTORE PUSH1 0x1A PUSH1 0x24 DUP3 ADD MSTORE PUSH32 0x5061796D656E7420746F20677561726469616E206661696C6564000000000000 PUSH1 0x44 DUP3 ADD MSTORE PUSH1 0x64 ADD PUSH2 0x3F9 JUMP JUMPDEST DUP3 PUSH1 0x1 PUSH1 0x1 PUSH1 0xA0 SHL SUB AND DUP8 PUSH32 0x37566DF6971769C95A4C085FC4C32EBBE7D4B2AA133FE7FE20895E5789BCFF12 DUP4 PUSH1 0x40 MLOAD PUSH2 0x167D SWAP2 DUP2 MSTORE PUSH1 0x20 ADD SWAP1 JUMP JUMPDEST PUSH1 0x40 MLOAD DUP1 SWAP2 SUB SWAP1 LOG3 POP POP POP DUP1 DUP1 PUSH2 0x1693 SWAP1 PUSH2 0x1DA0 JUMP JUMPDEST SWAP2 POP POP PUSH2 0x1503 JUMP JUMPDEST POP JUMPDEST POP PUSH1 0x3 ADD DUP1 SLOAD PUSH1 0xFF NOT AND SWAP1 SSTORE POP JUMP JUMPDEST PUSH1 0x0 DUP1 SLOAD PUSH1 0x1 PUSH1 0x1 PUSH1 0xA0 SHL SUB DUP4 DUP2 AND PUSH1 0x1 PUSH1 0x1 PUSH1 0xA0 SHL SUB NOT DUP4 AND DUP2 OR DUP5 SSTORE PUSH1 0x40 MLOAD SWAP2 SWAP1 SWAP3 AND SWAP3 DUP4 SWAP2 PUSH32 0x8BE0079C531659141344CD1FD0A4F28419497F9722A3DAAFE3B4186F6B6457E0 SWAP2 SWAP1 LOG3 POP POP JUMP JUMPDEST PUSH1 0x0 DUP3 DUP2 MSTORE PUSH1 0x8 PUSH1 0x20 MSTORE PUSH1 0x40 DUP2 KECCAK256 SWAP1 JUMPDEST PUSH1 0x1 DUP3 ADD SLOAD DUP2 LT ISZERO PUSH2 0x17A4 JUMPI DUP3 PUSH1 0x1 PUSH1 0x1 PUSH1 0xA0 SHL SUB AND DUP3 PUSH1 0x1 ADD DUP3 DUP2 SLOAD DUP2 LT PUSH2 0x1737 JUMPI PUSH2 0x1737 PUSH2 0x1D74 JUMP JUMPDEST PUSH1 0x0 SWAP2 DUP3 MSTORE PUSH1 0x20 SWAP1 SWAP2 KECCAK256 ADD SLOAD PUSH1 0x1 PUSH1 0x1 PUSH1 0xA0 SHL SUB AND SUB PUSH2 0x1792 JUMPI PUSH1 0x40 MLOAD PUSH3 0x461BCD PUSH1 0xE5 SHL DUP2 MSTORE PUSH1 0x20 PUSH1 0x4 DUP3 ADD MSTORE PUSH1 0x16 PUSH1 0x24 DUP3 ADD MSTORE PUSH22 0x11DD585C991A585B88185B1C9958591E481859191959 PUSH1 0x52 SHL PUSH1 0x44 DUP3 ADD MSTORE PUSH1 0x64 ADD PUSH2 0x3F9 JUMP JUMPDEST DUP1 PUSH2 0x179C DUP2 PUSH2 0x1DA0 JUMP JUMPDEST SWAP2 POP POP PUSH2 0x170C JUMP JUMPDEST POP PUSH1 0x1 DUP2 DUP2 ADD DUP1 SLOAD SWAP2 DUP3 ADD DUP2 SSTORE PUSH1 0x0 SWAP1 DUP2 MSTORE PUSH1 0x20 DUP1 DUP3 KECCAK256 SWAP1 SWAP3 ADD DUP1 SLOAD PUSH1 0x1 PUSH1 0x1 PUSH1 0xA0 SHL SUB NOT AND PUSH1 0x1 PUSH1 0x1 PUSH1 0xA0 SHL SUB DUP7 AND SWAP1 DUP2 OR SWAP1 SWAP2 SSTORE DUP1 DUP3 MSTORE PUSH1 0x4 DUP1 DUP5 MSTORE PUSH1 0x40 DUP1 DUP5 KECCAK256 SLOAD DUP9 DUP6 MSTORE PUSH1 0x5 DUP7 MSTORE DUP2 DUP6 KECCAK256 DUP5 DUP7 MSTORE DUP7 MSTORE SWAP4 DUP2 SWAP1 KECCAK256 DUP5 SWAP1 SSTORE SWAP1 DUP5 MSTORE MLOAD SWAP2 DUP3 MSTORE SWAP2 DUP6 SWAP2 PUSH32 0x328CFB31557826BD0EE2AF22D41990313383E5254B4A543C6EEB1DBC72E8A42E SWAP2 ADD PUSH1 0x40 MLOAD DUP1 SWAP2 SUB SWAP1 LOG3 POP POP POP JUMP JUMPDEST PUSH1 0x0 DUP3 DUP2 MSTORE PUSH1 0x8 PUSH1 0x20 MSTORE PUSH1 0x40 DUP2 KECCAK256 SWAP1 DUP1 JUMPDEST PUSH1 0x1 DUP4 ADD SLOAD DUP2 LT ISZERO PUSH2 0x195C JUMPI DUP4 PUSH1 0x1 PUSH1 0x1 PUSH1 0xA0 SHL SUB AND DUP4 PUSH1 0x1 ADD DUP3 DUP2 SLOAD DUP2 LT PUSH2 0x1874 JUMPI PUSH2 0x1874 PUSH2 0x1D74 JUMP JUMPDEST PUSH1 0x0 SWAP2 DUP3 MSTORE PUSH1 0x20 SWAP1 SWAP2 KECCAK256 ADD SLOAD PUSH1 0x1 PUSH1 0x1 PUSH1 0xA0 SHL SUB AND SUB PUSH2 0x194A JUMPI PUSH1 0x1 DUP1 DUP5 ADD DUP1 SLOAD SWAP1 SWAP2 PUSH2 0x18A0 SWAP2 PUSH2 0x1DCC JUMP JUMPDEST DUP2 SLOAD DUP2 LT PUSH2 0x18B0 JUMPI PUSH2 0x18B0 PUSH2 0x1D74 JUMP JUMPDEST PUSH1 0x0 SWAP2 DUP3 MSTORE PUSH1 0x20 SWAP1 SWAP2 KECCAK256 ADD SLOAD PUSH1 0x1 DUP5 ADD DUP1 SLOAD PUSH1 0x1 PUSH1 0x1 PUSH1 0xA0 SHL SUB SWAP1 SWAP3 AND SWAP2 DUP4 SWAP1 DUP2 LT PUSH2 0x18DE JUMPI PUSH2 0x18DE PUSH2 0x1D74 JUMP JUMPDEST SWAP1 PUSH1 0x0 MSTORE PUSH1 0x20 PUSH1 0x0 KECCAK256 ADD PUSH1 0x0 PUSH2 0x100 EXP DUP2 SLOAD DUP2 PUSH1 0x1 PUSH1 0x1 PUSH1 0xA0 SHL SUB MUL NOT AND SWAP1 DUP4 PUSH1 0x1 PUSH1 0x1 PUSH1 0xA0 SHL SUB AND MUL OR SWAP1 SSTORE POP DUP3 PUSH1 0x1 ADD DUP1 SLOAD DUP1 PUSH2 0x191F JUMPI PUSH2 0x191F PUSH2 0x1E18 JUMP JUMPDEST PUSH1 0x0 DUP3 DUP2 MSTORE PUSH1 0x20 SWAP1 KECCAK256 DUP2 ADD PUSH1 0x0 NOT SWAP1 DUP2 ADD DUP1 SLOAD PUSH1 0x1 PUSH1 0x1 PUSH1 0xA0 SHL SUB NOT AND SWAP1 SSTORE ADD SWAP1 SSTORE PUSH1 0x1 SWAP2 POP PUSH2 0x195C JUMP JUMPDEST DUP1 PUSH2 0x1954 DUP2 PUSH2 0x1DA0 JUMP JUMPDEST SWAP2 POP POP PUSH2 0x1849 JUMP JUMPDEST POP DUP1 PUSH2 0x199F JUMPI PUSH1 0x40 MLOAD PUSH3 0x461BCD PUSH1 0xE5 SHL DUP2 MSTORE PUSH1 0x20 PUSH1 0x4 DUP3 ADD MSTORE PUSH1 0x12 PUSH1 0x24 DUP3 ADD MSTORE PUSH18 0x11DD585C991A585B881B9BDD08199BDD5B99 PUSH1 0x72 SHL PUSH1 0x44 DUP3 ADD MSTORE PUSH1 0x64 ADD PUSH2 0x3F9 JUMP JUMPDEST PUSH1 0x40 MLOAD PUSH1 0x1 PUSH1 0x1 PUSH1 0xA0 SHL SUB DUP5 AND SWAP1 DUP6 SWAP1 PUSH32 0x22D4E8D1C30DD68C7D46E1BF9EEABABCEFA4F25D05FF459F056853227E239682 SWAP1 PUSH1 0x0 SWAP1 LOG3 POP POP POP POP JUMP JUMPDEST PUSH1 0x0 PUSH1 0x20 DUP3 DUP5 SUB SLT ISZERO PUSH2 0x19ED JUMPI PUSH1 0x0 DUP1 REVERT JUMPDEST POP CALLDATALOAD SWAP2 SWAP1 POP JUMP JUMPDEST DUP1 CALLDATALOAD PUSH1 0x1 PUSH1 0x1 PUSH1 0xA0 SHL SUB DUP2 AND DUP2 EQ PUSH2 0x1A0B JUMPI PUSH1 0x0 DUP1 REVERT JUMPDEST SWAP2 SWAP1 POP JUMP JUMPDEST PUSH1 0x0 PUSH1 0x20 DUP3 DUP5 SUB SLT ISZERO PUSH2 0x1A22 JUMPI PUSH1 0x0 DUP1 REVERT JUMPDEST PUSH2 0x1A2B DUP3 PUSH2 0x19F4 JUMP JUMPDEST SWAP4 SWAP3 POP POP POP JUMP JUMPDEST PUSH4 0x4E487B71 PUSH1 0xE0 SHL PUSH1 0x0 MSTORE PUSH1 0x41 PUSH1 0x4 MSTORE PUSH1 0x24 PUSH1 0x0 REVERT JUMPDEST PUSH1 0x0 PUSH1 0x20 DUP1 DUP4 DUP6 SUB SLT ISZERO PUSH2 0x1A5B JUMPI PUSH1 0x0 DUP1 REVERT JUMPDEST DUP3 CALLDATALOAD PUSH8 0xFFFFFFFFFFFFFFFF DUP1 DUP3 GT ISZERO PUSH2 0x1A73 JUMPI PUSH1 0x0 DUP1 REVERT JUMPDEST DUP2 DUP6 ADD SWAP2 POP DUP6 PUSH1 0x1F DUP4 ADD SLT PUSH2 0x1A87 JUMPI PUSH1 0x0 DUP1 REVERT JUMPDEST DUP2 CALLDATALOAD DUP2 DUP2 GT ISZERO PUSH2 0x1A99 JUMPI PUSH2 0x1A99 PUSH2 0x1A32 JUMP JUMPDEST DUP1 PUSH1 0x5 SHL PUSH1 0x40 MLOAD PUSH1 0x1F NOT PUSH1 0x3F DUP4 ADD AND DUP2 ADD DUP2 DUP2 LT DUP6 DUP3 GT OR ISZERO PUSH2 0x1ABE JUMPI PUSH2 0x1ABE PUSH2 0x1A32 JUMP JUMPDEST PUSH1 0x40 MSTORE SWAP2 DUP3 MSTORE DUP5 DUP3 ADD SWAP3 POP DUP4 DUP2 ADD DUP6 ADD SWAP2 DUP9 DUP4 GT ISZERO PUSH2 0x1ADC JUMPI PUSH1 0x0 DUP1 REVERT JUMPDEST SWAP4 DUP6 ADD SWAP4 JUMPDEST DUP3 DUP6 LT ISZERO PUSH2 0x1B01 JUMPI PUSH2 0x1AF2 DUP6 PUSH2 0x19F4 JUMP JUMPDEST DUP5 MSTORE SWAP4 DUP6 ADD SWAP4 SWAP3 DUP6 ADD SWAP3 PUSH2 0x1AE1 JUMP JUMPDEST SWAP9 SWAP8 POP POP POP POP POP POP POP POP JUMP JUMPDEST PUSH1 0x0 DUP1 DUP4 PUSH1 0x1F DUP5 ADD SLT PUSH2 0x1B1F JUMPI PUSH1 0x0 DUP1 REVERT JUMPDEST POP DUP2 CALLDATALOAD PUSH8 0xFFFFFFFFFFFFFFFF DUP2 GT ISZERO PUSH2 0x1B37 JUMPI PUSH1 0x0 DUP1 REVERT JUMPDEST PUSH1 0x20 DUP4 ADD SWAP2 POP DUP4 PUSH1 0x20 DUP3 PUSH1 0x5 SHL DUP6 ADD ADD GT ISZERO PUSH2 0x1B52 JUMPI PUSH1 0x0 DUP1 REVERT JUMPDEST SWAP3 POP SWAP3 SWAP1 POP JUMP JUMPDEST PUSH1 0x0 DUP1 PUSH1 0x0 DUP1 PUSH1 0x40 DUP6 DUP8 SUB SLT ISZERO PUSH2 0x1B6F JUMPI PUSH1 0x0 DUP1 REVERT JUMPDEST DUP5 CALLDATALOAD PUSH8 0xFFFFFFFFFFFFFFFF DUP1 DUP3 GT ISZERO PUSH2 0x1B87 JUMPI PUSH1 0x0 DUP1 REVERT JUMPDEST PUSH2 0x1B93 DUP9 DUP4 DUP10 ADD PUSH2 0x1B0D JUMP JUMPDEST SWAP1 SWAP7 POP SWAP5 POP PUSH1 0x20 DUP8 ADD CALLDATALOAD SWAP2 POP DUP1 DUP3 GT ISZERO PUSH2 0x1BAC JUMPI PUSH1 0x0 DUP1 REVERT JUMPDEST POP PUSH2 0x1BB9 DUP8 DUP3 DUP9 ADD PUSH2 0x1B0D JUMP JUMPDEST SWAP6 SWAP9 SWAP5 SWAP8 POP SWAP6 POP POP POP POP JUMP JUMPDEST PUSH1 0x0 DUP1 PUSH1 0x0 DUP1 PUSH1 0x0 PUSH1 0x60 DUP7 DUP9 SUB SLT ISZERO PUSH2 0x1BDD JUMPI PUSH1 0x0 DUP1 REVERT JUMPDEST DUP6 CALLDATALOAD SWAP5 POP PUSH1 0x20 DUP7 ADD CALLDATALOAD PUSH8 0xFFFFFFFFFFFFFFFF DUP1 DUP3 GT ISZERO PUSH2 0x1BFC JUMPI PUSH1 0x0 DUP1 REVERT JUMPDEST PUSH2 0x1C08 DUP10 DUP4 DUP11 ADD PUSH2 0x1B0D JUMP JUMPDEST SWAP1 SWAP7 POP SWAP5 POP PUSH1 0x40 DUP9 ADD CALLDATALOAD SWAP2 POP DUP1 DUP3 GT ISZERO PUSH2 0x1C21 JUMPI PUSH1 0x0 DUP1 REVERT JUMPDEST POP PUSH2 0x1C2E DUP9 DUP3 DUP10 ADD PUSH2 0x1B0D JUMP JUMPDEST SWAP7 SWAP10 SWAP6 SWAP9 POP SWAP4 SWAP7 POP SWAP3 SWAP5 SWAP4 SWAP3 POP POP POP JUMP JUMPDEST PUSH1 0x0 DUP1 PUSH1 0x40 DUP4 DUP6 SUB SLT ISZERO PUSH2 0x1C52 JUMPI PUSH1 0x0 DUP1 REVERT JUMPDEST DUP3 CALLDATALOAD SWAP2 POP PUSH2 0x1C62 PUSH1 0x20 DUP5 ADD PUSH2 0x19F4 JUMP JUMPDEST SWAP1 POP SWAP3 POP SWAP3 SWAP1 POP JUMP JUMPDEST PUSH1 0x0 DUP1 PUSH1 0x0 DUP1 PUSH1 0x0 DUP1 PUSH1 0xA0 DUP8 DUP10 SUB SLT ISZERO PUSH2 0x1C84 JUMPI PUSH1 0x0 DUP1 REVERT JUMPDEST DUP7 CALLDATALOAD PUSH8 0xFFFFFFFFFFFFFFFF DUP2 GT ISZERO PUSH2 0x1C9B JUMPI PUSH1 0x0 DUP1 REVERT JUMPDEST PUSH2 0x1CA7 DUP10 DUP3 DUP11 ADD PUSH2 0x1B0D JUMP JUMPDEST SWAP1 SWAP8 POP SWAP6 POP POP PUSH1 0x20 DUP8 ADD CALLDATALOAD SWAP4 POP PUSH1 0x40 DUP8 ADD CALLDATALOAD PUSH1 0xFF DUP2 AND DUP2 EQ PUSH2 0x1CC8 JUMPI PUSH1 0x0 DUP1 REVERT JUMPDEST SWAP6 SWAP9 SWAP5 SWAP8 POP SWAP3 SWAP6 PUSH1 0x60 DUP2 ADD CALLDATALOAD SWAP5 PUSH1 0x80 SWAP1 SWAP2 ADD CALLDATALOAD SWAP4 POP SWAP2 POP POP JUMP JUMPDEST PUSH1 0x1 PUSH1 0x1 PUSH1 0xA0 SHL SUB DUP7 DUP2 AND DUP3 MSTORE PUSH1 0xA0 PUSH1 0x20 DUP1 DUP5 ADD DUP3 SWAP1 MSTORE DUP8 MLOAD SWAP2 DUP5 ADD DUP3 SWAP1 MSTORE PUSH1 0x0 SWAP3 DUP9 DUP3 ADD SWAP3 SWAP1 SWAP2 SWAP1 PUSH1 0xC0 DUP7 ADD SWAP1 DUP6 JUMPDEST DUP2 DUP2 LT ISZERO PUSH2 0x1D30 JUMPI DUP6 MLOAD DUP6 AND DUP4 MSTORE SWAP5 DUP4 ADD SWAP5 SWAP2 DUP4 ADD SWAP2 PUSH1 0x1 ADD PUSH2 0x1D12 JUMP JUMPDEST POP POP PUSH1 0x40 DUP7 ADD SWAP9 SWAP1 SWAP9 MSTORE POP POP POP POP SWAP2 ISZERO ISZERO PUSH1 0x60 DUP4 ADD MSTORE PUSH1 0x80 SWAP1 SWAP2 ADD MSTORE SWAP3 SWAP2 POP POP JUMP JUMPDEST PUSH1 0x0 PUSH1 0x20 DUP3 DUP5 SUB SLT ISZERO PUSH2 0x1D64 JUMPI PUSH1 0x0 DUP1 REVERT JUMPDEST DUP2 MLOAD DUP1 ISZERO ISZERO DUP2 EQ PUSH2 0x1A2B JUMPI PUSH1 0x0 DUP1 REVERT JUMPDEST PUSH4 0x4E487B71 PUSH1 0xE0 SHL PUSH1 0x0 MSTORE PUSH1 0x32 PUSH1 0x4 MSTORE PUSH1 0x24 PUSH1 0x0 REVERT JUMPDEST PUSH4 0x4E487B71 PUSH1 0xE0 SHL PUSH1 0x0 MSTORE PUSH1 0x11 PUSH1 0x4 MSTORE PUSH1 0x24 PUSH1 0x0 REVERT JUMPDEST PUSH1 0x0 PUSH1 0x1 DUP3 ADD PUSH2 0x1DB2 JUMPI PUSH2 0x1DB2 PUSH2 0x1D8A JUMP JUMPDEST POP PUSH1 0x1 ADD SWAP1 JUMP JUMPDEST DUP1 DUP3 ADD DUP1 DUP3 GT ISZERO PUSH2 0x1479 JUMPI PUSH2 0x1479 PUSH2 0x1D8A JUMP JUMPDEST DUP2 DUP2 SUB DUP2 DUP2 GT ISZERO PUSH2 0x1479 JUMPI PUSH2 0x1479 PUSH2 0x1D8A JUMP JUMPDEST DUP1 DUP3 MUL DUP2 ISZERO DUP3 DUP3 DIV DUP5 EQ OR PUSH2 0x1479 JUMPI PUSH2 0x1479 PUSH2 0x1D8A JUMP JUMPDEST PUSH1 0x0 DUP3 PUSH2 0x1E13 JUMPI PUSH4 0x4E487B71 PUSH1 0xE0 SHL PUSH1 0x0 MSTORE PUSH1 0x12 PUSH1 0x4 MSTORE PUSH1 0x24 PUSH1 0x0 REVERT JUMPDEST POP DIV SWAP1 JUMP JUMPDEST PUSH4 0x4E487B71 PUSH1 0xE0 SHL PUSH1 0x0 MSTORE PUSH1 0x31 PUSH1 0x4 MSTORE PUSH1 0x24 PUSH1 0x0 REVERT INVALID LOG2 PUSH5 0x6970667358 0x22 SLT KECCAK256 SLT 0xE7 0xF6 DUP13 0xD0 GASPRICE PUSH22 0x67C1C441F1753BD0C7B0B8D239513EAE9A3683C990F2 SELFBALANCE SWAP14 SWAP11 PUSH5 0x736F6C6343 STOP ADDMOD SLT STOP CALLER "},"methodIdentifiers":{"calculateTotalPrice(address[])":"e50a5fd0","changeGuardians(uint256,address[],address[])":"ab0257f4","completeOrder(uint256)":"b6adaaff","createOrder(address[])":"43e5fab3","createOrderWithPermit(address[],uint256,uint8,bytes32,bytes32)":"e6e6db4e","expirationDuration()":"11a4c03a","getOrderDetails(uint256)":"ec7dd7bb","guardianPayments(uint256,address)":"c7ba56bc","guardianPricing(address)":"4011f4aa","orderCount()":"2453ffa8","orders(uint256)":"a85c38ef","owner()":"8da5cb5b","paymentToken()":"3013ce29","platformFee()":"26232a2e","renounceOwnership()":"715018a6","setExpirationDuration(uint256)":"626485a3","setGuardianPricing(uint256)":"38da7143","setGuardiansPricing(address[],uint256[])":"9bd16a95","setPaymentToken(address)":"6a326ab1","setPlatformFee(uint256)":"12e8e2c3","transferOwnership(address)":"f2fde38b","trigExpiredOrder(uint256)":"678b5b7b","withdrawEth()":"a0ef91df","withdrawToken(uint256)":"50baa622"}},"storageLayout":{"storage":[{"astId":7,"contract":"contracts/buddyGuard.sol:buddyGuard","label":"_owner","offset":0,"slot":"0","type":"t_address"},{"astId":123,"contract":"contracts/buddyGuard.sol:buddyGuard","label":"_status","offset":0,"slot":"1","type":"t_uint256"},{"astId":337,"contract":"contracts/buddyGuard.sol:buddyGuard","label":"paymentToken","offset":0,"slot":"2","type":"t_contract(IERC20)255"},{"astId":339,"contract":"contracts/buddyGuard.sol:buddyGuard","label":"expirationDuration","offset":0,"slot":"3","type":"t_uint256"},{"astId":343,"contract":"contracts/buddyGuard.sol:buddyGuard","label":"guardianPricing","offset":0,"slot":"4","type":"t_mapping(t_address,t_uint256)"},{"astId":349,"contract":"contracts/buddyGuard.sol:buddyGuard","label":"guardianPayments","offset":0,"slot":"5","type":"t_mapping(t_uint256,t_mapping(t_address,t_uint256))"},{"astId":352,"contract":"contracts/buddyGuard.sol:buddyGuard","label":"platformFee","offset":0,"slot":"6","type":"t_uint256"},{"astId":354,"contract":"contracts/buddyGuard.sol:buddyGuard","label":"orderCount","offset":0,"slot":"7","type":"t_uint256"},{"astId":359,"contract":"contracts/buddyGuard.sol:buddyGuard","label":"orders","offset":0,"slot":"8","type":"t_mapping(t_uint256,t_struct(Order)371_storage)"}],"types":{"t_address":{"encoding":"inplace","label":"address","numberOfBytes":"20"},"t_array(t_address)dyn_storage":{"base":"t_address","encoding":"dynamic_array","label":"address[]","numberOfBytes":"32"},"t_bool":{"encoding":"inplace","label":"bool","numberOfBytes":"1"},"t_contract(IERC20)255":{"encoding":"inplace","label":"contract IERC20","numberOfBytes":"20"},"t_mapping(t_address,t_uint256)":{"encoding":"mapping","key":"t_address","label":"mapping(address => uint256)","numberOfBytes":"32","value":"t_uint256"},"t_mapping(t_uint256,t_mapping(t_address,t_uint256))":{"encoding":"mapping","key":"t_uint256","label":"mapping(uint256 => mapping(address => uint256))","numberOfBytes":"32","value":"t_mapping(t_address,t_uint256)"},"t_mapping(t_uint256,t_struct(Order)371_storage)":{"encoding":"mapping","key":"t_uint256","label":"mapping(uint256 => struct buddyGuard.Order)","numberOfBytes":"32","value":"t_struct(Order)371_storage"},"t_struct(Order)371_storage":{"encoding":"inplace","label":"struct buddyGuard.Order","members":[{"astId":361,"contract":"contracts/buddyGuard.sol:buddyGuard","label":"creator","offset":0,"slot":"0","type":"t_address"},{"astId":364,"contract":"contracts/buddyGuard.sol:buddyGuard","label":"guardians","offset":0,"slot":"1","type":"t_array(t_address)dyn_storage"},{"astId":366,"contract":"contracts/buddyGuard.sol:buddyGuard","label":"creationTime","offset":0,"slot":"2","type":"t_uint256"},{"astId":368,"contract":"contracts/buddyGuard.sol:buddyGuard","label":"isActive","offset":0,"slot":"3","type":"t_bool"},{"astId":370,"contract":"contracts/buddyGuard.sol:buddyGuard","label":"totalPayment","offset":0,"slot":"4","type":"t_uint256"}],"numberOfBytes":"160"},"t_uint256":{"encoding":"inplace","label":"uint256","numberOfBytes":"32"}}}}}}