{
  "_format": "hh-sol-artifact-1",
  "contractName": "buddyGuardCcip",
  "sourceName": "contracts/buddyGuardCcip.sol",
  "abi": [
    {
      "inputs": [
        {
          "internalType": "address",
          "name": "router",
          "type": "address"
        }
      ],
      "stateMutability": "nonpayable",
      "type": "constructor"
    },
    {
      "inputs": [
        {
          "internalType": "address",
          "name": "router",
          "type": "address"
        }
      ],
      "name": "InvalidRouter",
      "type": "error"
    },
    {
      "anonymous": false,
      "inputs": [],
      "name": "ActionSuccessful",
      "type": "event"
    },
    {
      "anonymous": false,
      "inputs": [
        {
          "indexed": true,
          "internalType": "uint256",
          "name": "orderId",
          "type": "uint256"
        },
        {
          "indexed": true,
          "internalType": "address",
          "name": "guardian",
          "type": "address"
        },
        {
          "indexed": false,
          "internalType": "uint256",
          "name": "payment",
          "type": "uint256"
        }
      ],
      "name": "GuardianAdded",
      "type": "event"
    },
    {
      "anonymous": false,
      "inputs": [
        {
          "indexed": true,
          "internalType": "address",
          "name": "guardian",
          "type": "address"
        },
        {
          "indexed": false,
          "internalType": "uint256",
          "name": "newPricing",
          "type": "uint256"
        }
      ],
      "name": "GuardianPricingUpdated",
      "type": "event"
    },
    {
      "anonymous": false,
      "inputs": [
        {
          "indexed": true,
          "internalType": "uint256",
          "name": "orderId",
          "type": "uint256"
        },
        {
          "indexed": true,
          "internalType": "address",
          "name": "guardian",
          "type": "address"
        }
      ],
      "name": "GuardianRemoved",
      "type": "event"
    },
    {
      "anonymous": false,
      "inputs": [
        {
          "indexed": true,
          "internalType": "uint256",
          "name": "orderId",
          "type": "uint256"
        }
      ],
      "name": "OrderCompleted",
      "type": "event"
    },
    {
      "anonymous": false,
      "inputs": [
        {
          "indexed": true,
          "internalType": "uint256",
          "name": "orderId",
          "type": "uint256"
        },
        {
          "indexed": true,
          "internalType": "address",
          "name": "creator",
          "type": "address"
        },
        {
          "indexed": false,
          "internalType": "address",
          "name": "token",
          "type": "address"
        },
        {
          "indexed": false,
          "internalType": "uint256",
          "name": "payment",
          "type": "uint256"
        }
      ],
      "name": "OrderCreated",
      "type": "event"
    },
    {
      "anonymous": false,
      "inputs": [
        {
          "indexed": true,
          "internalType": "uint256",
          "name": "orderId",
          "type": "uint256"
        },
        {
          "indexed": true,
          "internalType": "address",
          "name": "guardian",
          "type": "address"
        }
      ],
      "name": "OrderExpired",
      "type": "event"
    },
    {
      "anonymous": false,
      "inputs": [
        {
          "indexed": true,
          "internalType": "address",
          "name": "previousOwner",
          "type": "address"
        },
        {
          "indexed": true,
          "internalType": "address",
          "name": "newOwner",
          "type": "address"
        }
      ],
      "name": "OwnershipTransferred",
      "type": "event"
    },
    {
      "anonymous": false,
      "inputs": [
        {
          "indexed": true,
          "internalType": "uint256",
          "name": "orderId",
          "type": "uint256"
        },
        {
          "indexed": true,
          "internalType": "address",
          "name": "guardian",
          "type": "address"
        },
        {
          "indexed": false,
          "internalType": "uint256",
          "name": "amount",
          "type": "uint256"
        }
      ],
      "name": "PaymentDistributed",
      "type": "event"
    },
    {
      "anonymous": false,
      "inputs": [
        {
          "indexed": false,
          "internalType": "uint256",
          "name": "newFee",
          "type": "uint256"
        }
      ],
      "name": "PlatformFeeUpdated",
      "type": "event"
    },
    {
      "inputs": [
        {
          "internalType": "address[]",
          "name": "_guardians",
          "type": "address[]"
        }
      ],
      "name": "calculateTotalPrice",
      "outputs": [
        {
          "internalType": "uint256",
          "name": "totalPrice",
          "type": "uint256"
        }
      ],
      "stateMutability": "view",
      "type": "function"
    },
    {
      "inputs": [
        {
          "components": [
            {
              "internalType": "bytes32",
              "name": "messageId",
              "type": "bytes32"
            },
            {
              "internalType": "uint64",
              "name": "sourceChainSelector",
              "type": "uint64"
            },
            {
              "internalType": "bytes",
              "name": "sender",
              "type": "bytes"
            },
            {
              "internalType": "bytes",
              "name": "data",
              "type": "bytes"
            },
            {
              "components": [
                {
                  "internalType": "address",
                  "name": "token",
                  "type": "address"
                },
                {
                  "internalType": "uint256",
                  "name": "amount",
                  "type": "uint256"
                }
              ],
              "internalType": "struct Client.EVMTokenAmount[]",
              "name": "destTokenAmounts",
              "type": "tuple[]"
            }
          ],
          "internalType": "struct Client.Any2EVMMessage",
          "name": "message",
          "type": "tuple"
        }
      ],
      "name": "ccipReceive",
      "outputs": [],
      "stateMutability": "nonpayable",
      "type": "function"
    },
    {
      "inputs": [
        {
          "internalType": "uint256",
          "name": "_orderId",
          "type": "uint256"
        }
      ],
      "name": "completeOrder",
      "outputs": [],
      "stateMutability": "nonpayable",
      "type": "function"
    },
    {
      "inputs": [
        {
          "internalType": "address",
          "name": "_token",
          "type": "address"
        },
        {
          "internalType": "address[]",
          "name": "_guardians",
          "type": "address[]"
        },
        {
          "internalType": "uint256",
          "name": "_payment",
          "type": "uint256"
        }
      ],
      "name": "createOrder",
      "outputs": [],
      "stateMutability": "nonpayable",
      "type": "function"
    },
    {
      "inputs": [],
      "name": "getRouter",
      "outputs": [
        {
          "internalType": "address",
          "name": "",
          "type": "address"
        }
      ],
      "stateMutability": "view",
      "type": "function"
    },
    {
      "inputs": [
        {
          "internalType": "uint256",
          "name": "",
          "type": "uint256"
        },
        {
          "internalType": "address",
          "name": "",
          "type": "address"
        }
      ],
      "name": "guardianPayments",
      "outputs": [
        {
          "internalType": "uint256",
          "name": "",
          "type": "uint256"
        }
      ],
      "stateMutability": "view",
      "type": "function"
    },
    {
      "inputs": [
        {
          "internalType": "address",
          "name": "",
          "type": "address"
        }
      ],
      "name": "guardianPricing",
      "outputs": [
        {
          "internalType": "uint256",
          "name": "",
          "type": "uint256"
        }
      ],
      "stateMutability": "view",
      "type": "function"
    },
    {
      "inputs": [],
      "name": "orderCount",
      "outputs": [
        {
          "internalType": "uint256",
          "name": "",
          "type": "uint256"
        }
      ],
      "stateMutability": "view",
      "type": "function"
    },
    {
      "inputs": [
        {
          "internalType": "uint256",
          "name": "",
          "type": "uint256"
        }
      ],
      "name": "orders",
      "outputs": [
        {
          "internalType": "address",
          "name": "creator",
          "type": "address"
        },
        {
          "internalType": "uint256",
          "name": "creationTime",
          "type": "uint256"
        },
        {
          "internalType": "bool",
          "name": "isActive",
          "type": "bool"
        },
        {
          "internalType": "contract IERC20",
          "name": "token",
          "type": "address"
        },
        {
          "internalType": "uint256",
          "name": "totalPayment",
          "type": "uint256"
        }
      ],
      "stateMutability": "view",
      "type": "function"
    },
    {
      "inputs": [],
      "name": "owner",
      "outputs": [
        {
          "internalType": "address",
          "name": "",
          "type": "address"
        }
      ],
      "stateMutability": "view",
      "type": "function"
    },
    {
      "inputs": [],
      "name": "platformFee",
      "outputs": [
        {
          "internalType": "uint256",
          "name": "",
          "type": "uint256"
        }
      ],
      "stateMutability": "view",
      "type": "function"
    },
    {
      "inputs": [
        {
          "internalType": "uint256",
          "name": "_orderId",
          "type": "uint256"
        },
        {
          "internalType": "address",
          "name": "_guardian",
          "type": "address"
        }
      ],
      "name": "removeGuardian",
      "outputs": [],
      "stateMutability": "nonpayable",
      "type": "function"
    },
    {
      "inputs": [
        {
          "internalType": "uint256",
          "name": "_orderId",
          "type": "uint256"
        },
        {
          "internalType": "address[]",
          "name": "_guardians",
          "type": "address[]"
        }
      ],
      "name": "removeGuardians",
      "outputs": [],
      "stateMutability": "nonpayable",
      "type": "function"
    },
    {
      "inputs": [],
      "name": "renounceOwnership",
      "outputs": [],
      "stateMutability": "nonpayable",
      "type": "function"
    },
    {
      "inputs": [
        {
          "internalType": "uint256",
          "name": "_price",
          "type": "uint256"
        }
      ],
      "name": "setGuardianPricing",
      "outputs": [],
      "stateMutability": "nonpayable",
      "type": "function"
    },
    {
      "inputs": [
        {
          "internalType": "bytes4",
          "name": "interfaceId",
          "type": "bytes4"
        }
      ],
      "name": "supportsInterface",
      "outputs": [
        {
          "internalType": "bool",
          "name": "",
          "type": "bool"
        }
      ],
      "stateMutability": "pure",
      "type": "function"
    },
    {
      "inputs": [
        {
          "internalType": "address",
          "name": "newOwner",
          "type": "address"
        }
      ],
      "name": "transferOwnership",
      "outputs": [],
      "stateMutability": "nonpayable",
      "type": "function"
    },
    {
      "inputs": [
        {
          "internalType": "uint256",
          "name": "_orderId",
          "type": "uint256"
        }
      ],
      "name": "trigExpiredOrder",
      "outputs": [],
      "stateMutability": "nonpayable",
      "type": "function"
    },
    {
      "inputs": [
        {
          "internalType": "uint256",
          "name": "_newFee",
          "type": "uint256"
        }
      ],
      "name": "updatePlatformFee",
      "outputs": [],
      "stateMutability": "nonpayable",
      "type": "function"
    }
  ],
  "bytecode": "0x60a060405261c3506004553480156200001757600080fd5b5060405162001f2038038062001f208339810160408190526200003a91620000d8565b80620000463362000088565b6001600160a01b03811662000075576040516335fdcccd60e21b81526000600482015260240160405180910390fd5b6001600160a01b0316608052506200010a565b600080546001600160a01b038381166001600160a01b0319831681178455604051919092169283917f8be0079c531659141344cd1fd0a4f28419497f9722a3daafe3b4186f6b6457e09190a35050565b600060208284031215620000eb57600080fd5b81516001600160a01b03811681146200010357600080fd5b9392505050565b608051611df36200012d600039600081816102cd015261108d0152611df36000f3fe608060405234801561001057600080fd5b50600436106101215760003560e01c80637f8337be116100ad578063b0f479a111610071578063b0f479a1146102cb578063b6adaaff146102f1578063c7ba56bc14610304578063e50a5fd01461032f578063f2fde38b1461034257600080fd5b80637f8337be146101e457806385572ffb146101f75780638da5cb5b1461020a578063a85c38ef1461022f578063aa0b5988146102b857600080fd5b80632ea715eb116100f45780632ea715eb1461018357806338da7143146101965780634011f4aa146101a9578063678b5b7b146101c9578063715018a6146101dc57600080fd5b806301ffc9a71461012657806306de148a1461014e5780632453ffa81461016357806326232a2e1461017a575b600080fd5b6101396101343660046117fc565b610355565b60405190151581526020015b60405180910390f35b61016161015c366004611895565b61038c565b005b61016c60035481565b604051908152602001610145565b61016c60045481565b6101616101913660046118ef565b6107e9565b6101616101a436600461191b565b610b16565b61016c6101b7366004611934565b60016020526000908152604090205481565b6101616101d736600461191b565b610b65565b610161610cd2565b6101616101f236600461194f565b610ce6565b61016161020536600461199b565b611082565b6000546001600160a01b03165b6040516001600160a01b039091168152602001610145565b61027d61023d36600461191b565b600260208190526000918252604090912080549181015460038201546004909201546001600160a01b0393841693919260ff811692610100909104169085565b604080516001600160a01b0396871681526020810195909552921515928401929092529092166060820152608081019190915260a001610145565b6101616102c636600461191b565b6110e1565b7f0000000000000000000000000000000000000000000000000000000000000000610217565b6101616102ff36600461191b565b611124565b61016c6103123660046118ef565b600560209081526000928352604080842090915290825290205481565b61016c61033d3660046119d6565b6111cf565b610161610350366004611934565b611245565b60006001600160e01b031982166385572ffb60e01b148061038657506001600160e01b031982166301ffc9a760e01b145b92915050565b600061039884846111cf565b9050808210156103e65760405162461bcd60e51b8152602060048201526014602482015273125b9cdd59999a58da595b9d081c185e5b595b9d60621b60448201526064015b60405180910390fd5b6040516323b872dd60e01b81523360048201523060248201526044810183905285906001600160a01b038216906323b872dd906064016020604051808303816000875af115801561043b573d6000803e3d6000fd5b505050506040513d601f19601f8201168201806040525081019061045f9190611a18565b6104ab5760405162461bcd60e51b815260206004820152601760248201527f5061796d656e74207472616e73666572206661696c656400000000000000000060448201526064016103dd565b81831115610558576001600160a01b03811663a9059cbb336104cd8587611a50565b6040516001600160e01b031960e085901b1681526001600160a01b03909216600483015260248201526044016020604051808303816000875af1158015610518573d6000803e3d6000fd5b505050506040513d601f19601f8201168201806040525081019061053c9190611a18565b6105585760405162461bcd60e51b81526004016103dd90611a63565b600380546000908152600260208190526040822080546001600160a01b03191633178155429181019190915591820180546001600160a01b038516610100026001600160a81b0319909116176001179055600482018490555b8581101561078257816001018787838181106105cf576105cf611a8a565b90506020020160208101906105e49190611934565b81546001808201845560009384526020842090910180546001600160a01b0319166001600160a01b0393909316929092179091559088888481811061062b5761062b611a8a565b90506020020160208101906106409190611934565b6001600160a01b03166001600160a01b0316815260200190815260200160002054600560006003548152602001908152602001600020600089898581811061068a5761068a611a8a565b905060200201602081019061069f9190611934565b6001600160a01b031681526020810191909152604001600020558686828181106106cb576106cb611a8a565b90506020020160208101906106e09190611934565b6001600160a01b03166003547f328cfb31557826bd0ee2af22d41990313383e5254b4a543c6eeb1dbc72e8a42e600160008b8b8781811061072357610723611a8a565b90506020020160208101906107389190611934565b6001600160a01b03166001600160a01b031681526020019081526020016000205460405161076891815260200190565b60405180910390a38061077a81611aa0565b9150506105b1565b50600354604080516001600160a01b038a168152602081018690523392917ff9e17940e547201709f9aaacdec8ab3566601c60d8f5affb54f74b79b0b50b13910160405180910390a3600380549060006107db83611aa0565b919050555050505050505050565b6000828152600260205260409020546001600160a01b0316331461085e5760405162461bcd60e51b815260206004820152602660248201527f4f6e6c79206f726465722063726561746f722063616e2072656d6f766520677560448201526530b93234b0b760d11b60648201526084016103dd565b6000828152600260205260409020600381015460ff166108b65760405162461bcd60e51b81526020600482015260136024820152724f72646572206973206e6f742061637469766560681b60448201526064016103dd565b60008381526005602090815260408083206001600160a01b0386168452909152812054815b60018401548110156109ee57846001600160a01b031684600101828154811061090657610906611a8a565b6000918252602090912001546001600160a01b0316036109dc5760018085018054909161093291611a50565b8154811061094257610942611a8a565b6000918252602090912001546001850180546001600160a01b03909216918390811061097057610970611a8a565b9060005260206000200160006101000a8154816001600160a01b0302191690836001600160a01b03160217905550836001018054806109b1576109b1611ab9565b600082815260209020810160001990810180546001600160a01b0319169055019055600192506109ee565b806109e681611aa0565b9150506108db565b5081610a3c5760405162461bcd60e51b815260206004820152601b60248201527f477561726469616e206e6f7420666f756e6420696e206f72646572000000000060448201526064016103dd565b8015610ad957600383015460405163a9059cbb60e01b8152336004820152602481018390526101009091046001600160a01b03169063a9059cbb906044016020604051808303816000875af1158015610a99573d6000803e3d6000fd5b505050506040513d601f19601f82011682018060405250810190610abd9190611a18565b610ad95760405162461bcd60e51b81526004016103dd90611a63565b6040516001600160a01b0385169086907f22d4e8d1c30dd68c7d46e1bf9eeababcefa4f25d05ff459f056853227e23968290600090a35050505050565b3360008181526001602052604090819020839055517f0ac566928846c6129b07721af76e58fe5d8d9e6df98589219a2cf7ba8708f2db90610b5a9084815260200190565b60405180910390a250565b6000818152600260205260409020610b7d81336112bb565b610bd45760405162461bcd60e51b815260206004820152602260248201527f4f6e6c792061737369676e656420677561726469616e2063616e20747269676760448201526132b960f11b60648201526084016103dd565b6002810154610be6906202a300611acf565b4211610c345760405162461bcd60e51b815260206004820152601e60248201527f4f72646572206475726174696f6e206e6f74207965742065787069726564000060448201526064016103dd565b600381015460ff16610c985760405162461bcd60e51b815260206004820152602760248201527f4f7264657220697320616c726561647920636f6d706c65746564206f722063616044820152661b98d95b1b195960ca1b60648201526084016103dd565b610ca18261132a565b604051339083907f14f735d5fcf12036a5146349c08cfedec3d13e64847008d65d08f4713f23e8b390600090a35050565b610cda611681565b610ce460006116db565b565b6000838152600260205260409020546001600160a01b03163314610d5c5760405162461bcd60e51b815260206004820152602760248201527f4f6e6c79206f726465722063726561746f722063616e2072656d6f766520677560448201526661726469616e7360c81b60648201526084016103dd565b6000838152600260205260409020600381015460ff16610db45760405162461bcd60e51b81526020600482015260136024820152724f72646572206973206e6f742061637469766560681b60448201526064016103dd565b6000805b83811015610fdd576000805b600185015481108015610dd5575081155b15610f6057868684818110610dec57610dec611a8a565b9050602002016020810190610e019190611934565b6001600160a01b0316856001018281548110610e1f57610e1f611a8a565b6000918252602090912001546001600160a01b031603610f4e57600088815260056020526040812090888886818110610e5a57610e5a611a8a565b9050602002016020810190610e6f9190611934565b6001600160a01b03168152602081019190915260400160002054610e939085611acf565b6001808701805492965091610ea89190611a50565b81548110610eb857610eb8611a8a565b6000918252602090912001546001860180546001600160a01b039092169183908110610ee657610ee6611a8a565b9060005260206000200160006101000a8154816001600160a01b0302191690836001600160a01b0316021790555084600101805480610f2757610f27611ab9565b600082815260209020810160001990810180546001600160a01b0319169055019055600191505b80610f5881611aa0565b915050610dc4565b5080610f6c5750610fcb565b858583818110610f7e57610f7e611a8a565b9050602002016020810190610f939190611934565b6001600160a01b0316877f22d4e8d1c30dd68c7d46e1bf9eeababcefa4f25d05ff459f056853227e23968260405160405180910390a3505b80610fd581611aa0565b915050610db8565b50801561107b57600382015460405163a9059cbb60e01b8152336004820152602481018390526101009091046001600160a01b03169063a9059cbb906044016020604051808303816000875af115801561103b573d6000803e3d6000fd5b505050506040513d601f19601f8201168201806040525081019061105f9190611a18565b61107b5760405162461bcd60e51b81526004016103dd90611a63565b5050505050565b336001600160a01b037f000000000000000000000000000000000000000000000000000000000000000016146110cd576040516335fdcccd60e21b81523360048201526024016103dd565b6110de6110d982611ca8565b61172b565b50565b6110e9611681565b60048190556040518181527f45610d581145924dd7090a5017e5f2b1d6f42213bb2e95707ff86846bbfcb1ca9060200160405180910390a150565b6000818152600260205260409020546001600160a01b031633146111985760405162461bcd60e51b815260206004820152602560248201527f4f6e6c79206f726465722063726561746f722063616e20636f6d706c6574652060448201526437b93232b960d91b60648201526084016103dd565b6111a18161132a565b60405181907f02a7d4d9472af7118644884b9a0ee443540c0027e938dd0aa35be8ecbe946c0a90600090a250565b6000805b8281101561123e57600160008585848181106111f1576111f1611a8a565b90506020020160208101906112069190611934565b6001600160a01b0316815260208101919091526040016000205461122a9083611acf565b91508061123681611aa0565b9150506111d3565b5092915050565b61124d611681565b6001600160a01b0381166112b25760405162461bcd60e51b815260206004820152602660248201527f4f776e61626c653a206e6577206f776e657220697320746865207a65726f206160448201526564647265737360d01b60648201526084016103dd565b6110de816116db565b6000805b600184015481101561132057826001600160a01b03168460010182815481106112ea576112ea611a8a565b6000918252602090912001546001600160a01b03160361130e576001915050610386565b8061131881611aa0565b9150506112bf565b5060009392505050565b6000818152600260205260408120600480820154905491929091612710906113529084611d55565b61135c9190611d6c565b60038401549091506001600160a01b036101009091041663a9059cbb61138a6000546001600160a01b031690565b6040516001600160e01b031960e084901b1681526001600160a01b039091166004820152602481018490526044016020604051808303816000875af11580156113d7573d6000803e3d6000fd5b505050506040513d601f19601f820116820180604052508101906113fb9190611a18565b6114475760405162461bcd60e51b815260206004820152601c60248201527f506c6174666f726d20666565207472616e73666572206661696c65640000000060448201526064016103dd565b60006114538284611a50565b90506000805b60018601548110156114cf5760008781526005602052604081206001880180549192918490811061148c5761148c611a8a565b60009182526020808320909101546001600160a01b031683528201929092526040019020546114bb9083611acf565b9150806114c781611aa0565b915050611459565b50801561166f5760005b600186015481101561166d5760008660010182815481106114fc576114fc611a8a565b60009182526020808320909101548a83526005825260408084206001600160a01b039092168085529190925290822054909250908461153b8388611d55565b6115459190611d6c565b60038a015460405163a9059cbb60e01b81526001600160a01b038681166004830152602482018490529293506101009091049091169063a9059cbb906044016020604051808303816000875af11580156115a3573d6000803e3d6000fd5b505050506040513d601f19601f820116820180604052508101906115c79190611a18565b6116135760405162461bcd60e51b815260206004820152601a60248201527f5061796d656e7420746f20677561726469616e206661696c656400000000000060448201526064016103dd565b826001600160a01b03168a7f37566df6971769c95a4c085fc4c32ebbe7d4b2aa133fe7fe20895e5789bcff128360405161164f91815260200190565b60405180910390a3505050808061166590611aa0565b9150506114d9565b505b50505050600301805460ff1916905550565b6000546001600160a01b03163314610ce45760405162461bcd60e51b815260206004820181905260248201527f4f776e61626c653a2063616c6c6572206973206e6f7420746865206f776e657260448201526064016103dd565b600080546001600160a01b038381166001600160a01b0319831681178455604051919092169283917f8be0079c531659141344cd1fd0a4f28419497f9722a3daafe3b4186f6b6457e09190a35050565b6000306001600160a01b031682606001516040516117499190611d8e565b6000604051808303816000865af19150503d8060008114611786576040519150601f19603f3d011682016040523d82523d6000602084013e61178b565b606091505b50509050806117cf5760405162461bcd60e51b815260206004820152601060248201526f115e1958dd5d1a5bdb8819985a5b195960821b60448201526064016103dd565b6040517fea4bf20a5db753bcea2039548f8216934a6461d2ae6725f742c5911af2f5ce0390600090a15050565b60006020828403121561180e57600080fd5b81356001600160e01b03198116811461182657600080fd5b9392505050565b80356001600160a01b038116811461184457600080fd5b919050565b60008083601f84011261185b57600080fd5b50813567ffffffffffffffff81111561187357600080fd5b6020830191508360208260051b850101111561188e57600080fd5b9250929050565b600080600080606085870312156118ab57600080fd5b6118b48561182d565b9350602085013567ffffffffffffffff8111156118d057600080fd5b6118dc87828801611849565b9598909750949560400135949350505050565b6000806040838503121561190257600080fd5b823591506119126020840161182d565b90509250929050565b60006020828403121561192d57600080fd5b5035919050565b60006020828403121561194657600080fd5b6118268261182d565b60008060006040848603121561196457600080fd5b83359250602084013567ffffffffffffffff81111561198257600080fd5b61198e86828701611849565b9497909650939450505050565b6000602082840312156119ad57600080fd5b813567ffffffffffffffff8111156119c457600080fd5b820160a0818503121561182657600080fd5b600080602083850312156119e957600080fd5b823567ffffffffffffffff811115611a0057600080fd5b611a0c85828601611849565b90969095509350505050565b600060208284031215611a2a57600080fd5b8151801515811461182657600080fd5b634e487b7160e01b600052601160045260246000fd5b8181038181111561038657610386611a3a565b6020808252600d908201526c1499599d5b990819985a5b1959609a1b604082015260600190565b634e487b7160e01b600052603260045260246000fd5b600060018201611ab257611ab2611a3a565b5060010190565b634e487b7160e01b600052603160045260246000fd5b8082018082111561038657610386611a3a565b634e487b7160e01b600052604160045260246000fd5b6040805190810167ffffffffffffffff81118282101715611b1b57611b1b611ae2565b60405290565b60405160a0810167ffffffffffffffff81118282101715611b1b57611b1b611ae2565b604051601f8201601f1916810167ffffffffffffffff81118282101715611b6d57611b6d611ae2565b604052919050565b803567ffffffffffffffff8116811461184457600080fd5b600082601f830112611b9e57600080fd5b813567ffffffffffffffff811115611bb857611bb8611ae2565b611bcb601f8201601f1916602001611b44565b818152846020838601011115611be057600080fd5b816020850160208301376000918101602001919091529392505050565b600082601f830112611c0e57600080fd5b8135602067ffffffffffffffff821115611c2a57611c2a611ae2565b611c38818360051b01611b44565b82815260069290921b84018101918181019086841115611c5757600080fd5b8286015b84811015611c9d5760408189031215611c745760008081fd5b611c7c611af8565b611c858261182d565b81528185013585820152835291830191604001611c5b565b509695505050505050565b600060a08236031215611cba57600080fd5b611cc2611b21565b82358152611cd260208401611b75565b6020820152604083013567ffffffffffffffff80821115611cf257600080fd5b611cfe36838701611b8d565b60408401526060850135915080821115611d1757600080fd5b611d2336838701611b8d565b60608401526080850135915080821115611d3c57600080fd5b50611d4936828601611bfd565b60808301525092915050565b808202811582820484141761038657610386611a3a565b600082611d8957634e487b7160e01b600052601260045260246000fd5b500490565b6000825160005b81811015611daf5760208186018101518583015201611d95565b50600092019182525091905056fea264697066735822122067cd0f79a31025f811529758a632e3486a7c7520e890540cdde547c91ae5a86d64736f6c63430008120033",
  "linkReferences": {},
  "deployedLinkReferences": {}
}