{
  "_format": "hh-sol-artifact-1",
  "contractName": "buddyGuard",
  "sourceName": "contracts/buddyGuard.sol",
  "abi": [
    {
      "inputs": [
        {
          "internalType": "address",
          "name": "_paymentToken",
          "type": "address"
        },
        {
          "internalType": "uint256",
          "name": "_initialExpirationDuration",
          "type": "uint256"
        }
      ],
      "stateMutability": "nonpayable",
      "type": "constructor"
    },
    {
      "anonymous": false,
      "inputs": [
        {
          "indexed": true,
          "internalType": "uint256",
          "name": "orderId",
          "type": "uint256"
        },
        {
          "indexed": true,
          "internalType": "address",
          "name": "guardian",
          "type": "address"
        },
        {
          "indexed": false,
          "internalType": "uint256",
          "name": "payment",
          "type": "uint256"
        }
      ],
      "name": "GuardianAdded",
      "type": "event"
    },
    {
      "anonymous": false,
      "inputs": [
        {
          "indexed": true,
          "internalType": "address",
          "name": "guardian",
          "type": "address"
        },
        {
          "indexed": false,
          "internalType": "uint256",
          "name": "newPricing",
          "type": "uint256"
        }
      ],
      "name": "GuardianPricingUpdated",
      "type": "event"
    },
    {
      "anonymous": false,
      "inputs": [
        {
          "indexed": true,
          "internalType": "uint256",
          "name": "orderId",
          "type": "uint256"
        },
        {
          "indexed": true,
          "internalType": "address",
          "name": "guardian",
          "type": "address"
        }
      ],
      "name": "GuardianRemoved",
      "type": "event"
    },
    {
      "anonymous": false,
      "inputs": [
        {
          "indexed": true,
          "internalType": "uint256",
          "name": "orderId",
          "type": "uint256"
        }
      ],
      "name": "OrderCompleted",
      "type": "event"
    },
    {
      "anonymous": false,
      "inputs": [
        {
          "indexed": true,
          "internalType": "uint256",
          "name": "orderId",
          "type": "uint256"
        },
        {
          "indexed": true,
          "internalType": "address",
          "name": "creator",
          "type": "address"
        },
        {
          "indexed": false,
          "internalType": "uint256",
          "name": "totalPayment",
          "type": "uint256"
        }
      ],
      "name": "OrderCreated",
      "type": "event"
    },
    {
      "anonymous": false,
      "inputs": [
        {
          "indexed": true,
          "internalType": "uint256",
          "name": "orderId",
          "type": "uint256"
        },
        {
          "indexed": true,
          "internalType": "address",
          "name": "guardian",
          "type": "address"
        }
      ],
      "name": "OrderExpired",
      "type": "event"
    },
    {
      "anonymous": false,
      "inputs": [
        {
          "indexed": true,
          "internalType": "address",
          "name": "previousOwner",
          "type": "address"
        },
        {
          "indexed": true,
          "internalType": "address",
          "name": "newOwner",
          "type": "address"
        }
      ],
      "name": "OwnershipTransferred",
      "type": "event"
    },
    {
      "anonymous": false,
      "inputs": [
        {
          "indexed": true,
          "internalType": "uint256",
          "name": "orderId",
          "type": "uint256"
        },
        {
          "indexed": true,
          "internalType": "address",
          "name": "guardian",
          "type": "address"
        },
        {
          "indexed": false,
          "internalType": "uint256",
          "name": "amount",
          "type": "uint256"
        }
      ],
      "name": "PaymentDistributed",
      "type": "event"
    },
    {
      "anonymous": false,
      "inputs": [
        {
          "indexed": false,
          "internalType": "address",
          "name": "newPaymentToken",
          "type": "address"
        }
      ],
      "name": "PaymentTokenUpdated",
      "type": "event"
    },
    {
      "anonymous": false,
      "inputs": [
        {
          "indexed": false,
          "internalType": "uint256",
          "name": "newFee",
          "type": "uint256"
        }
      ],
      "name": "PlatformFeeUpdated",
      "type": "event"
    },
    {
      "inputs": [
        {
          "internalType": "address[]",
          "name": "_guardians",
          "type": "address[]"
        }
      ],
      "name": "calculateTotalPrice",
      "outputs": [
        {
          "internalType": "uint256",
          "name": "totalPrice",
          "type": "uint256"
        }
      ],
      "stateMutability": "view",
      "type": "function"
    },
    {
      "inputs": [
        {
          "internalType": "uint256",
          "name": "_orderId",
          "type": "uint256"
        },
        {
          "internalType": "address[]",
          "name": "_guardiansToAdd",
          "type": "address[]"
        },
        {
          "internalType": "address[]",
          "name": "_guardiansToRemove",
          "type": "address[]"
        }
      ],
      "name": "changeGuardians",
      "outputs": [],
      "stateMutability": "nonpayable",
      "type": "function"
    },
    {
      "inputs": [
        {
          "internalType": "uint256",
          "name": "_orderId",
          "type": "uint256"
        }
      ],
      "name": "completeOrder",
      "outputs": [],
      "stateMutability": "nonpayable",
      "type": "function"
    },
    {
      "inputs": [
        {
          "internalType": "address[]",
          "name": "_guardians",
          "type": "address[]"
        }
      ],
      "name": "createOrder",
      "outputs": [],
      "stateMutability": "nonpayable",
      "type": "function"
    },
    {
      "inputs": [
        {
          "internalType": "address[]",
          "name": "_guardians",
          "type": "address[]"
        },
        {
          "internalType": "uint256",
          "name": "_deadline",
          "type": "uint256"
        },
        {
          "internalType": "uint8",
          "name": "_v",
          "type": "uint8"
        },
        {
          "internalType": "bytes32",
          "name": "_r",
          "type": "bytes32"
        },
        {
          "internalType": "bytes32",
          "name": "_s",
          "type": "bytes32"
        }
      ],
      "name": "createOrderWithPermit",
      "outputs": [],
      "stateMutability": "nonpayable",
      "type": "function"
    },
    {
      "inputs": [],
      "name": "expirationDuration",
      "outputs": [
        {
          "internalType": "uint256",
          "name": "",
          "type": "uint256"
        }
      ],
      "stateMutability": "view",
      "type": "function"
    },
    {
      "inputs": [
        {
          "internalType": "uint256",
          "name": "_orderId",
          "type": "uint256"
        }
      ],
      "name": "getOrderDetails",
      "outputs": [
        {
          "internalType": "address",
          "name": "",
          "type": "address"
        },
        {
          "internalType": "address[]",
          "name": "",
          "type": "address[]"
        },
        {
          "internalType": "uint256",
          "name": "",
          "type": "uint256"
        },
        {
          "internalType": "bool",
          "name": "",
          "type": "bool"
        },
        {
          "internalType": "uint256",
          "name": "",
          "type": "uint256"
        }
      ],
      "stateMutability": "view",
      "type": "function"
    },
    {
      "inputs": [
        {
          "internalType": "uint256",
          "name": "",
          "type": "uint256"
        },
        {
          "internalType": "address",
          "name": "",
          "type": "address"
        }
      ],
      "name": "guardianPayments",
      "outputs": [
        {
          "internalType": "uint256",
          "name": "",
          "type": "uint256"
        }
      ],
      "stateMutability": "view",
      "type": "function"
    },
    {
      "inputs": [
        {
          "internalType": "address",
          "name": "",
          "type": "address"
        }
      ],
      "name": "guardianPricing",
      "outputs": [
        {
          "internalType": "uint256",
          "name": "",
          "type": "uint256"
        }
      ],
      "stateMutability": "view",
      "type": "function"
    },
    {
      "inputs": [],
      "name": "orderCount",
      "outputs": [
        {
          "internalType": "uint256",
          "name": "",
          "type": "uint256"
        }
      ],
      "stateMutability": "view",
      "type": "function"
    },
    {
      "inputs": [
        {
          "internalType": "uint256",
          "name": "",
          "type": "uint256"
        }
      ],
      "name": "orders",
      "outputs": [
        {
          "internalType": "address",
          "name": "creator",
          "type": "address"
        },
        {
          "internalType": "uint256",
          "name": "creationTime",
          "type": "uint256"
        },
        {
          "internalType": "bool",
          "name": "isActive",
          "type": "bool"
        },
        {
          "internalType": "uint256",
          "name": "totalPayment",
          "type": "uint256"
        }
      ],
      "stateMutability": "view",
      "type": "function"
    },
    {
      "inputs": [],
      "name": "owner",
      "outputs": [
        {
          "internalType": "address",
          "name": "",
          "type": "address"
        }
      ],
      "stateMutability": "view",
      "type": "function"
    },
    {
      "inputs": [],
      "name": "paymentToken",
      "outputs": [
        {
          "internalType": "contract IERC20",
          "name": "",
          "type": "address"
        }
      ],
      "stateMutability": "view",
      "type": "function"
    },
    {
      "inputs": [],
      "name": "platformFee",
      "outputs": [
        {
          "internalType": "uint256",
          "name": "",
          "type": "uint256"
        }
      ],
      "stateMutability": "view",
      "type": "function"
    },
    {
      "inputs": [],
      "name": "renounceOwnership",
      "outputs": [],
      "stateMutability": "nonpayable",
      "type": "function"
    },
    {
      "inputs": [
        {
          "internalType": "uint256",
          "name": "_newDuration",
          "type": "uint256"
        }
      ],
      "name": "setExpirationDuration",
      "outputs": [],
      "stateMutability": "nonpayable",
      "type": "function"
    },
    {
      "inputs": [
        {
          "internalType": "uint256",
          "name": "_price",
          "type": "uint256"
        }
      ],
      "name": "setGuardianPricing",
      "outputs": [],
      "stateMutability": "nonpayable",
      "type": "function"
    },
    {
      "inputs": [
        {
          "internalType": "address[]",
          "name": "_guardians",
          "type": "address[]"
        },
        {
          "internalType": "uint256[]",
          "name": "_prices",
          "type": "uint256[]"
        }
      ],
      "name": "setGuardiansPricing",
      "outputs": [],
      "stateMutability": "nonpayable",
      "type": "function"
    },
    {
      "inputs": [
        {
          "internalType": "address",
          "name": "_newPaymentToken",
          "type": "address"
        }
      ],
      "name": "setPaymentToken",
      "outputs": [],
      "stateMutability": "nonpayable",
      "type": "function"
    },
    {
      "inputs": [
        {
          "internalType": "uint256",
          "name": "_newFee",
          "type": "uint256"
        }
      ],
      "name": "setPlatformFee",
      "outputs": [],
      "stateMutability": "nonpayable",
      "type": "function"
    },
    {
      "inputs": [
        {
          "internalType": "address",
          "name": "newOwner",
          "type": "address"
        }
      ],
      "name": "transferOwnership",
      "outputs": [],
      "stateMutability": "nonpayable",
      "type": "function"
    },
    {
      "inputs": [
        {
          "internalType": "uint256",
          "name": "_orderId",
          "type": "uint256"
        }
      ],
      "name": "trigExpiredOrder",
      "outputs": [],
      "stateMutability": "nonpayable",
      "type": "function"
    },
    {
      "inputs": [],
      "name": "withdrawEth",
      "outputs": [],
      "stateMutability": "nonpayable",
      "type": "function"
    },
    {
      "inputs": [
        {
          "internalType": "uint256",
          "name": "_amount",
          "type": "uint256"
        }
      ],
      "name": "withdrawToken",
      "outputs": [],
      "stateMutability": "nonpayable",
      "type": "function"
    }
  ],
  "bytecode": "0x60806040526101f46006553480156200001757600080fd5b5060405162001fce38038062001fce8339810160408190526200003a916200011e565b6200004533620000ce565b600180556001600160a01b038216620000a45760405162461bcd60e51b815260206004820152601560248201527f496e76616c696420746f6b656e20616464726573730000000000000000000000604482015260640160405180910390fd5b600280546001600160a01b0319166001600160a01b0393909316929092179091556003556200015a565b600080546001600160a01b038381166001600160a01b0319831681178455604051919092169283917f8be0079c531659141344cd1fd0a4f28419497f9722a3daafe3b4186f6b6457e09190a35050565b600080604083850312156200013257600080fd5b82516001600160a01b03811681146200014a57600080fd5b6020939093015192949293505050565b611e64806200016a6000396000f3fe608060405234801561001057600080fd5b50600436106101585760003560e01c8063715018a6116100c3578063b6adaaff1161007c578063b6adaaff14610319578063c7ba56bc1461032c578063e50a5fd014610357578063e6e6db4e1461036a578063ec7dd7bb1461037d578063f2fde38b146103a157600080fd5b8063715018a61461025d5780638da5cb5b146102655780639bd16a9514610276578063a0ef91df14610289578063a85c38ef14610291578063ab0257f41461030657600080fd5b80634011f4aa116101155780634011f4aa146101de57806343e5fab3146101fe57806350baa62214610211578063626485a314610224578063678b5b7b146102375780636a326ab11461024a57600080fd5b806311a4c03a1461015d57806312e8e2c3146101795780632453ffa81461018e57806326232a2e146101975780633013ce29146101a057806338da7143146101cb575b600080fd5b61016660035481565b6040519081526020015b60405180910390f35b61018c6101873660046119db565b6103b4565b005b61016660075481565b61016660065481565b6002546101b3906001600160a01b031681565b6040516001600160a01b039091168152602001610170565b61018c6101d93660046119db565b61043e565b6101666101ec366004611a10565b60046020526000908152604090205481565b61018c61020c366004611a48565b61048d565b61018c61021f3660046119db565b6107a5565b61018c6102323660046119db565b610892565b61018c6102453660046119db565b61089f565b61018c610258366004611a10565b6109c3565b61018c610a67565b6000546001600160a01b03166101b3565b61018c610284366004611b59565b610a7b565b61018c610be1565b6102d661029f3660046119db565b60086020526000908152604090208054600282015460038301546004909301546001600160a01b0390921692909160ff9091169084565b604080516001600160a01b0390951685526020850193909352901515918301919091526060820152608001610170565b61018c610314366004611bc5565b610c35565b61018c6103273660046119db565b610ff1565b61016661033a366004611c3f565b600560209081526000928352604080842090915290825290205481565b610166610365366004611a48565b6110aa565b61018c610378366004611c6b565b61111b565b61039061038b3660046119db565b611236565b604051610170959493929190611ce2565b61018c6103af366004611a10565b6112e5565b6103bc61135b565b6127108111156104025760405162461bcd60e51b815260206004820152600c60248201526b08ccaca40e8dede40d0d2ced60a31b60448201526064015b60405180910390fd5b60068190556040518181527f45610d581145924dd7090a5017e5f2b1d6f42213bb2e95707ff86846bbfcb1ca906020015b60405180910390a150565b3360008181526004602052604090819020839055517f0ac566928846c6129b07721af76e58fe5d8d9e6df98589219a2cf7ba8708f2db906104829084815260200190565b60405180910390a250565b6104956113b5565b60006104a0826110aa565b90508015610569576002546040516323b872dd60e01b8152336004820152306024820152604481018390526001600160a01b03909116906323b872dd906064016020604051808303816000875af11580156104ff573d6000803e3d6000fd5b505050506040513d601f19601f820116820180604052508101906105239190611d52565b6105695760405162461bcd60e51b815260206004820152601760248201527614185e5b595b9d081d1c985b9cd9995c8819985a5b1959604a1b60448201526064016103f9565b600754600090815260086020526040812080546001600160a01b0319163317815542600282015560038101805460ff1916600117905560048101839055905b835181101561074857816001018482815181106105c7576105c7611d74565b6020908102919091018101518254600181018455600093845291832090910180546001600160a01b0319166001600160a01b0390921691909117905584516004919086908490811061061b5761061b611d74565b60200260200101516001600160a01b03166001600160a01b0316815260200190815260200160002054600560006007548152602001908152602001600020600086848151811061066d5761066d611d74565b60200260200101516001600160a01b03166001600160a01b03168152602001908152602001600020819055508381815181106106ab576106ab611d74565b60200260200101516001600160a01b03166007547f328cfb31557826bd0ee2af22d41990313383e5254b4a543c6eeb1dbc72e8a42e600460008886815181106106f6576106f6611d74565b60200260200101516001600160a01b03166001600160a01b031681526020019081526020016000205460405161072e91815260200190565b60405180910390a38061074081611da0565b9150506105a8565b506007546040518381523391907f28eb86fd03c9bd96a8a83e4a46ab2ad257b70cea893d98ad6d482e96aa25fad09060200160405180910390a36007805490600061079283611da0565b919050555050506107a260018055565b50565b6107ad61135b565b6107b56113b5565b6002546001600160a01b031663a9059cbb6107d86000546001600160a01b031690565b6040516001600160e01b031960e084901b1681526001600160a01b039091166004820152602481018490526044016020604051808303816000875af1158015610825573d6000803e3d6000fd5b505050506040513d601f19601f820116820180604052508101906108499190611d52565b6108895760405162461bcd60e51b815260206004820152601160248201527015da5d1a191c985dd85b0819985a5b1959607a1b60448201526064016103f9565b6107a260018055565b61089a61135b565b600355565b6108a76113b5565b60008181526008602052604090206108bf813361140e565b6109165760405162461bcd60e51b815260206004820152602260248201527f4f6e6c792061737369676e656420677561726469616e2063616e20747269676760448201526132b960f11b60648201526084016103f9565b6003546000838152600860205260409020600201546109359190611db9565b42116109835760405162461bcd60e51b815260206004820152601e60248201527f4f72646572206475726174696f6e206e6f74207965742065787069726564000060448201526064016103f9565b61098c8261147f565b604051339083907f14f735d5fcf12036a5146349c08cfedec3d13e64847008d65d08f4713f23e8b390600090a3506107a260018055565b6109cb61135b565b6001600160a01b038116610a195760405162461bcd60e51b8152602060048201526015602482015274496e76616c696420746f6b656e206164647265737360581b60448201526064016103f9565b600280546001600160a01b0319166001600160a01b0383169081179091556040519081527fbd4032c1c91da2791730ea1bbc82c6b6f857da7c0a8318143d19ef74e62cd91390602001610433565b610a6f61135b565b610a7960006116ac565b565b610a8361135b565b828114610ade5760405162461bcd60e51b8152602060048201526024808201527f477561726469616e7320616e6420707269636573206c656e677468206d69736d6044820152630c2e8c6d60e31b60648201526084016103f9565b60005b83811015610bda57828282818110610afb57610afb611d74565b9050602002013560046000878785818110610b1857610b18611d74565b9050602002016020810190610b2d9190611a10565b6001600160a01b03168152602081019190915260400160002055848482818110610b5957610b59611d74565b9050602002016020810190610b6e9190611a10565b6001600160a01b03167f0ac566928846c6129b07721af76e58fe5d8d9e6df98589219a2cf7ba8708f2db848484818110610baa57610baa611d74565b90506020020135604051610bc091815260200190565b60405180910390a280610bd281611da0565b915050610ae1565b5050505050565b610be961135b565b610bf16113b5565b600080546040516001600160a01b03909116914780156108fc02929091818181858888f19350505050158015610c2b573d6000803e3d6000fd5b50610a7960018055565b610c3d6113b5565b6000858152600860205260409020546001600160a01b03163314610cb35760405162461bcd60e51b815260206004820152602760248201527f4f6e6c79206f726465722063726561746f722063616e206368616e676520677560448201526661726469616e7360c81b60648201526084016103f9565b60008581526008602052604090206003015460ff16610d0a5760405162461bcd60e51b81526020600482015260136024820152724f72646572206973206e6f742061637469766560681b60448201526064016103f9565b6000610d488585808060200260200160405190810160405280939291908181526020018383602002808284376000920191909152506110aa92505050565b90506000610d888484808060200260200160405190810160405280939291908181526020018383602002808284376000920191909152506110aa92505050565b905080821115610e72576002546001600160a01b03166323b872dd3330610daf8587611dcc565b6040516001600160e01b031960e086901b1681526001600160a01b03938416600482015292909116602483015260448201526064016020604051808303816000875af1158015610e03573d6000803e3d6000fd5b505050506040513d601f19601f82011682018060405250810190610e279190611d52565b610e6d5760405162461bcd60e51b815260206004820152601760248201527614185e5b595b9d081d1c985b9cd9995c8819985a5b1959604a1b60448201526064016103f9565b610f4a565b81811115610f4a576002546001600160a01b031663a9059cbb33610e968585611dcc565b6040516001600160e01b031960e085901b1681526001600160a01b03909216600483015260248201526044016020604051808303816000875af1158015610ee1573d6000803e3d6000fd5b505050506040513d601f19601f82011682018060405250810190610f059190611d52565b610f4a5760405162461bcd60e51b81526020600482015260166024820152751499599d5b99081d1c985b9cd9995c8819985a5b195960521b60448201526064016103f9565b60005b85811015610f9757610f8588888884818110610f6b57610f6b611d74565b9050602002016020810190610f809190611a10565b6116fc565b80610f8f81611da0565b915050610f4d565b5060005b83811015610fe557610fd388868684818110610fb957610fb9611d74565b9050602002016020810190610fce9190611a10565b611838565b80610fdd81611da0565b915050610f9b565b505050610bda60018055565b610ff96113b5565b6000818152600860205260409020546001600160a01b0316331461106d5760405162461bcd60e51b815260206004820152602560248201527f4f6e6c79206f726465722063726561746f722063616e20636f6d706c6574652060448201526437b93232b960d91b60648201526084016103f9565b6110768161147f565b60405181907f02a7d4d9472af7118644884b9a0ee443540c0027e938dd0aa35be8ecbe946c0a90600090a26107a260018055565b6000805b825181101561111557600460008483815181106110cd576110cd611d74565b60200260200101516001600160a01b03166001600160a01b0316815260200190815260200160002054826111019190611db9565b91508061110d81611da0565b9150506110ae565b50919050565b60025460408051602080890282810182019093528882526001600160a01b039093169263d505accf923392309261116d928d918d9182918501908490808284376000920191909152506110aa92505050565b6040516001600160e01b031960e086901b1681526001600160a01b03938416600482015292909116602483015260448201526064810187905260ff8616608482015260a4810185905260c4810184905260e401600060405180830381600087803b1580156111da57600080fd5b505af11580156111ee573d6000803e3d6000fd5b5050505061122e86868080602002602001604051908101604052809392919081815260200183836020028082843760009201919091525061048d92505050565b505050505050565b600081815260086020908152604080832080546002820154600383015460048401546001850180548751818a0281018a019098528088526060988a988998899890976001600160a01b03909116969495909460ff169390928691908301828280156112ca57602002820191906000526020600020905b81546001600160a01b031681526001909101906020018083116112ac575b50505050509350955095509550955095505091939590929450565b6112ed61135b565b6001600160a01b0381166113525760405162461bcd60e51b815260206004820152602660248201527f4f776e61626c653a206e6577206f776e657220697320746865207a65726f206160448201526564647265737360d01b60648201526084016103f9565b6107a2816116ac565b6000546001600160a01b03163314610a795760405162461bcd60e51b815260206004820181905260248201527f4f776e61626c653a2063616c6c6572206973206e6f7420746865206f776e657260448201526064016103f9565b6002600154036114075760405162461bcd60e51b815260206004820152601f60248201527f5265656e7472616e637947756172643a207265656e7472616e742063616c6c0060448201526064016103f9565b6002600155565b6000805b600184015481101561147357826001600160a01b031684600101828154811061143d5761143d611d74565b6000918252602090912001546001600160a01b031603611461576001915050611479565b8061146b81611da0565b915050611412565b50600090505b92915050565b6000818152600860205260409020600381015460ff166114f15760405162461bcd60e51b815260206004820152602760248201527f4f7264657220697320616c726561647920636f6d706c65746564206f722063616044820152661b98d95b1b195960ca1b60648201526084016103f9565b600181015460048201541561169d5760005b8181101561169b57600083600101828154811061152257611522611d74565b60009182526020808320909101548783526005825260408084206001600160a01b0390921680855291909252908220546006549193509190612710906115689082611dcc565b6115729084611ddf565b61157c9190611df6565b60025460405163a9059cbb60e01b81526001600160a01b0386811660048301526024820184905292935091169063a9059cbb906044016020604051808303816000875af11580156115d1573d6000803e3d6000fd5b505050506040513d601f19601f820116820180604052508101906115f59190611d52565b6116415760405162461bcd60e51b815260206004820152601a60248201527f5061796d656e7420746f20677561726469616e206661696c656400000000000060448201526064016103f9565b826001600160a01b0316877f37566df6971769c95a4c085fc4c32ebbe7d4b2aa133fe7fe20895e5789bcff128360405161167d91815260200190565b60405180910390a3505050808061169390611da0565b915050611503565b505b50600301805460ff1916905550565b600080546001600160a01b038381166001600160a01b0319831681178455604051919092169283917f8be0079c531659141344cd1fd0a4f28419497f9722a3daafe3b4186f6b6457e09190a35050565b6000828152600860205260408120905b60018201548110156117a457826001600160a01b031682600101828154811061173757611737611d74565b6000918252602090912001546001600160a01b0316036117925760405162461bcd60e51b815260206004820152601660248201527511dd585c991a585b88185b1c9958591e48185919195960521b60448201526064016103f9565b8061179c81611da0565b91505061170c565b506001818101805491820181556000908152602080822090920180546001600160a01b0319166001600160a01b038616908117909155808252600480845260408084205488855260058652818520848652865293819020849055908452519182529185917f328cfb31557826bd0ee2af22d41990313383e5254b4a543c6eeb1dbc72e8a42e910160405180910390a3505050565b600082815260086020526040812090805b600183015481101561195c57836001600160a01b031683600101828154811061187457611874611d74565b6000918252602090912001546001600160a01b03160361194a576001808401805490916118a091611dcc565b815481106118b0576118b0611d74565b6000918252602090912001546001840180546001600160a01b0390921691839081106118de576118de611d74565b9060005260206000200160006101000a8154816001600160a01b0302191690836001600160a01b031602179055508260010180548061191f5761191f611e18565b600082815260209020810160001990810180546001600160a01b03191690550190556001915061195c565b8061195481611da0565b915050611849565b508061199f5760405162461bcd60e51b815260206004820152601260248201527111dd585c991a585b881b9bdd08199bdd5b9960721b60448201526064016103f9565b6040516001600160a01b0384169085907f22d4e8d1c30dd68c7d46e1bf9eeababcefa4f25d05ff459f056853227e23968290600090a350505050565b6000602082840312156119ed57600080fd5b5035919050565b80356001600160a01b0381168114611a0b57600080fd5b919050565b600060208284031215611a2257600080fd5b611a2b826119f4565b9392505050565b634e487b7160e01b600052604160045260246000fd5b60006020808385031215611a5b57600080fd5b823567ffffffffffffffff80821115611a7357600080fd5b818501915085601f830112611a8757600080fd5b813581811115611a9957611a99611a32565b8060051b604051601f19603f83011681018181108582111715611abe57611abe611a32565b604052918252848201925083810185019188831115611adc57600080fd5b938501935b82851015611b0157611af2856119f4565b84529385019392850192611ae1565b98975050505050505050565b60008083601f840112611b1f57600080fd5b50813567ffffffffffffffff811115611b3757600080fd5b6020830191508360208260051b8501011115611b5257600080fd5b9250929050565b60008060008060408587031215611b6f57600080fd5b843567ffffffffffffffff80821115611b8757600080fd5b611b9388838901611b0d565b90965094506020870135915080821115611bac57600080fd5b50611bb987828801611b0d565b95989497509550505050565b600080600080600060608688031215611bdd57600080fd5b85359450602086013567ffffffffffffffff80821115611bfc57600080fd5b611c0889838a01611b0d565b90965094506040880135915080821115611c2157600080fd5b50611c2e88828901611b0d565b969995985093965092949392505050565b60008060408385031215611c5257600080fd5b82359150611c62602084016119f4565b90509250929050565b60008060008060008060a08789031215611c8457600080fd5b863567ffffffffffffffff811115611c9b57600080fd5b611ca789828a01611b0d565b90975095505060208701359350604087013560ff81168114611cc857600080fd5b959894975092956060810135946080909101359350915050565b6001600160a01b03868116825260a0602080840182905287519184018290526000928882019290919060c0860190855b81811015611d30578551851683529483019491830191600101611d12565b5050604086019890985250505050911515606083015260809091015292915050565b600060208284031215611d6457600080fd5b81518015158114611a2b57600080fd5b634e487b7160e01b600052603260045260246000fd5b634e487b7160e01b600052601160045260246000fd5b600060018201611db257611db2611d8a565b5060010190565b8082018082111561147957611479611d8a565b8181038181111561147957611479611d8a565b808202811582820484141761147957611479611d8a565b600082611e1357634e487b7160e01b600052601260045260246000fd5b500490565b634e487b7160e01b600052603160045260246000fdfea264697066735822122012e7f68cd03a7567c1c441f1753bd0c7b0b8d239513eae9a3683c990f2479d9a64736f6c63430008120033",
  "linkReferences": {},
  "deployedLinkReferences": {}
}