{
  "_format": "hh-sol-artifact-1",
  "contractName": "SourceContract",
  "sourceName": "contracts/sourceCreator.sol",
  "abi": [
    {
      "inputs": [
        {
          "internalType": "address",
          "name": "_routerClientAddress",
          "type": "address"
        },
        {
          "internalType": "address",
          "name": "_linkTokenAddress",
          "type": "address"
        }
      ],
      "stateMutability": "nonpayable",
      "type": "constructor"
    },
    {
      "anonymous": false,
      "inputs": [
        {
          "indexed": true,
          "internalType": "address",
          "name": "previousOwner",
          "type": "address"
        },
        {
          "indexed": true,
          "internalType": "address",
          "name": "newOwner",
          "type": "address"
        }
      ],
      "name": "OwnershipTransferred",
      "type": "event"
    },
    {
      "inputs": [
        {
          "internalType": "uint64",
          "name": "destinationChainSelector",
          "type": "uint64"
        },
        {
          "internalType": "address",
          "name": "targetContractAddress",
          "type": "address"
        },
        {
          "internalType": "uint256",
          "name": "orderId",
          "type": "uint256"
        }
      ],
      "name": "initiateCompleteOrder",
      "outputs": [],
      "stateMutability": "nonpayable",
      "type": "function"
    },
    {
      "inputs": [
        {
          "internalType": "uint64",
          "name": "destinationChainSelector",
          "type": "uint64"
        },
        {
          "internalType": "address",
          "name": "targetContractAddress",
          "type": "address"
        },
        {
          "internalType": "address",
          "name": "token",
          "type": "address"
        },
        {
          "internalType": "address[]",
          "name": "guardians",
          "type": "address[]"
        },
        {
          "internalType": "uint256",
          "name": "payment",
          "type": "uint256"
        }
      ],
      "name": "initiateCreateOrder",
      "outputs": [],
      "stateMutability": "nonpayable",
      "type": "function"
    },
    {
      "inputs": [],
      "name": "owner",
      "outputs": [
        {
          "internalType": "address",
          "name": "",
          "type": "address"
        }
      ],
      "stateMutability": "view",
      "type": "function"
    },
    {
      "inputs": [],
      "name": "renounceOwnership",
      "outputs": [],
      "stateMutability": "nonpayable",
      "type": "function"
    },
    {
      "inputs": [
        {
          "internalType": "address",
          "name": "newOwner",
          "type": "address"
        }
      ],
      "name": "transferOwnership",
      "outputs": [],
      "stateMutability": "nonpayable",
      "type": "function"
    },
    {
      "inputs": [],
      "name": "withdrawEther",
      "outputs": [],
      "stateMutability": "nonpayable",
      "type": "function"
    },
    {
      "inputs": [],
      "name": "withdrawLinkTokens",
      "outputs": [],
      "stateMutability": "nonpayable",
      "type": "function"
    },
    {
      "stateMutability": "payable",
      "type": "receive"
    }
  ],
  "bytecode": "0x608060405234801561001057600080fd5b5060405161112f38038061112f83398101604081905261002f9161013b565b610038336100cf565b600180556001600160a01b0382161580159061005c57506001600160a01b03811615155b61009e5760405162461bcd60e51b815260206004820152600f60248201526e496e76616c6964206164647265737360881b604482015260640160405180910390fd5b600280546001600160a01b039384166001600160a01b0319918216179091556003805492909316911617905561016e565b600080546001600160a01b038381166001600160a01b0319831681178455604051919092169283917f8be0079c531659141344cd1fd0a4f28419497f9722a3daafe3b4186f6b6457e09190a35050565b80516001600160a01b038116811461013657600080fd5b919050565b6000806040838503121561014e57600080fd5b6101578361011f565b91506101656020840161011f565b90509250929050565b610fb28061017d6000396000f3fe6080604052600436106100745760003560e01c80638da5cb5b1161004e5780638da5cb5b146100cc578063cdebaa24146100f8578063f2fde38b14610118578063fec965b61461013857600080fd5b80630cc5cca514610080578063715018a6146100a25780637362377b146100b757600080fd5b3661007b57005b600080fd5b34801561008c57600080fd5b506100a061009b366004610c60565b61014d565b005b3480156100ae57600080fd5b506100a06103bb565b3480156100c357600080fd5b506100a06103cf565b3480156100d857600080fd5b50600054604080516001600160a01b039092168252519081900360200190f35b34801561010457600080fd5b506100a0610113366004610d10565b6104d3565b34801561012457600080fd5b506100a0610133366004610d4c565b610688565b34801561014457600080fd5b506100a0610701565b610155610864565b6001600160a01b0384161580159061017557506001600160a01b03851615155b6101b85760405162461bcd60e51b815260206004820152600f60248201526e496e76616c6964206164647265737360881b60448201526064015b60405180910390fd5b600081116102085760405162461bcd60e51b815260206004820152601860248201527f5061796d656e74206d75737420626520706f736974697665000000000000000060448201526064016101af565b61021d6001600160a01b0385163330846108bd565b6000848484846040516024016102369493929190610d6e565b60408051601f19818403018152918152602080830180516001600160e01b031663036f0a4560e11b17905281516001808252818401909352929350600092919082015b60408051808201909152600080825260208201528152602001906001900390816102795790505090506040518060400160405280876001600160a01b0316815260200184815250816000815181106102d3576102d3610dd2565b6020908102919091018101919091526002546040805160a0810182526001600160a01b038b811660c0808401919091528351808403909101815260e0830184528252818501879052818301869052600354811660608301528251948501835260008552608082019490945290516396f4e9f960e01b815292909116916396f4e9f991610364918c9190600401610e38565b6020604051808303816000875af1158015610383573d6000803e3d6000fd5b505050506040513d601f19601f820116820180604052508101906103a79190610f12565b5050506103b360018055565b505050505050565b6103c361091d565b6103cd6000610977565b565b6103d761091d565b6103df610864565b47806104255760405162461bcd60e51b815260206004820152601560248201527427379022ba3432b9103a37903bb4ba34323930bb9760591b60448201526064016101af565b600080546040516001600160a01b039091169083908381818185875af1925050503d8060008114610472576040519150601f19603f3d011682016040523d82523d6000602084013e610477565b606091505b50509050806104c85760405162461bcd60e51b815260206004820152601860248201527f4574686572207769746864726177616c206661696c65642e000000000000000060448201526064016101af565b50506103cd60018055565b6104db610864565b6001600160a01b0382166105235760405162461bcd60e51b815260206004820152600f60248201526e496e76616c6964206164647265737360881b60448201526064016101af565b60008160405160240161053891815260200190565b60408051601f198184030181529181526020820180516001600160e01b031663b6adaaff60e01b179052600254815160a081019092526001600160a01b0386811660c084015292935091909116906396f4e9f99086908060e0810160408051808303601f1901815291815290825260208083018890528151600080825291810183529290910191906105ec565b60408051808201909152600080825260208201528152602001906001900390816105c55790505b5081526003546001600160a01b03166020808301919091526040805191820181526000825291820152516001600160e01b031960e085901b168152610635929190600401610e38565b6020604051808303816000875af1158015610654573d6000803e3d6000fd5b505050506040513d601f19601f820116820180604052508101906106789190610f12565b505061068360018055565b505050565b61069061091d565b6001600160a01b0381166106f55760405162461bcd60e51b815260206004820152602660248201527f4f776e61626c653a206e6577206f776e657220697320746865207a65726f206160448201526564647265737360d01b60648201526084016101af565b6106fe81610977565b50565b61070961091d565b610711610864565b6003546040516370a0823160e01b81523060048201526000916001600160a01b0316906370a0823190602401602060405180830381865afa15801561075a573d6000803e3d6000fd5b505050506040513d601f19601f8201168201806040525081019061077e9190610f12565b9050600081116107d05760405162461bcd60e51b815260206004820152601b60248201527f4e6f204c494e4b20746f6b656e7320746f2077697468647261772e000000000060448201526064016101af565b6003546001600160a01b031663a9059cbb6107f36000546001600160a01b031690565b6040516001600160e01b031960e084901b1681526001600160a01b039091166004820152602481018490526044016020604051808303816000875af1158015610840573d6000803e3d6000fd5b505050506040513d601f19601f820116820180604052508101906104c89190610f2b565b6002600154036108b65760405162461bcd60e51b815260206004820152601f60248201527f5265656e7472616e637947756172643a207265656e7472616e742063616c6c0060448201526064016101af565b6002600155565b604080516001600160a01b0385811660248301528416604482015260648082018490528251808303909101815260849091019091526020810180516001600160e01b03166323b872dd60e01b1790526109179085906109c7565b50505050565b6000546001600160a01b031633146103cd5760405162461bcd60e51b815260206004820181905260248201527f4f776e61626c653a2063616c6c6572206973206e6f7420746865206f776e657260448201526064016101af565b600080546001600160a01b038381166001600160a01b0319831681178455604051919092169283917f8be0079c531659141344cd1fd0a4f28419497f9722a3daafe3b4186f6b6457e09190a35050565b6000610a1c826040518060400160405280602081526020017f5361666545524332303a206c6f772d6c6576656c2063616c6c206661696c6564815250856001600160a01b0316610a9c9092919063ffffffff16565b9050805160001480610a3d575080806020019051810190610a3d9190610f2b565b6106835760405162461bcd60e51b815260206004820152602a60248201527f5361666545524332303a204552433230206f7065726174696f6e20646964206e6044820152691bdd081cdd58d8d9595960b21b60648201526084016101af565b6060610aab8484600085610ab3565b949350505050565b606082471015610b145760405162461bcd60e51b815260206004820152602660248201527f416464726573733a20696e73756666696369656e742062616c616e636520666f6044820152651c8818d85b1b60d21b60648201526084016101af565b600080866001600160a01b03168587604051610b309190610f4d565b60006040518083038185875af1925050503d8060008114610b6d576040519150601f19603f3d011682016040523d82523d6000602084013e610b72565b606091505b5091509150610b8387838387610b8e565b979650505050505050565b60608315610bfd578251600003610bf6576001600160a01b0385163b610bf65760405162461bcd60e51b815260206004820152601d60248201527f416464726573733a2063616c6c20746f206e6f6e2d636f6e747261637400000060448201526064016101af565b5081610aab565b610aab8383815115610c125781518083602001fd5b8060405162461bcd60e51b81526004016101af9190610f69565b803567ffffffffffffffff81168114610c4457600080fd5b919050565b80356001600160a01b0381168114610c4457600080fd5b60008060008060008060a08789031215610c7957600080fd5b610c8287610c2c565b9550610c9060208801610c49565b9450610c9e60408801610c49565b9350606087013567ffffffffffffffff80821115610cbb57600080fd5b818901915089601f830112610ccf57600080fd5b813581811115610cde57600080fd5b8a60208260051b8501011115610cf357600080fd5b602083019550809450505050608087013590509295509295509295565b600080600060608486031215610d2557600080fd5b610d2e84610c2c565b9250610d3c60208501610c49565b9150604084013590509250925092565b600060208284031215610d5e57600080fd5b610d6782610c49565b9392505050565b6001600160a01b03858116825260606020808401829052908301859052600091869160808501845b88811015610dbb5783610da886610c49565b1682529382019390820190600101610d96565b508094505050505082604083015295945050505050565b634e487b7160e01b600052603260045260246000fd5b60005b83811015610e03578181015183820152602001610deb565b50506000910152565b60008151808452610e24816020860160208601610de8565b601f01601f19169290920160200192915050565b6000604067ffffffffffffffff8516835260208181850152845160a083860152610e6560e0860182610e0c565b905081860151603f1980878403016060880152610e828383610e0c565b88860151888203830160808a01528051808352908601945060009350908501905b80841015610ed557845180516001600160a01b0316835286015186830152938501936001939093019290860190610ea3565b5060608901516001600160a01b031660a08901526080890151888203830160c08a01529550610f048187610e0c565b9a9950505050505050505050565b600060208284031215610f2457600080fd5b5051919050565b600060208284031215610f3d57600080fd5b81518015158114610d6757600080fd5b60008251610f5f818460208701610de8565b9190910192915050565b602081526000610d676020830184610e0c56fea26469706673582212208c29ca8061cc15211f546ea154400d8bb5e24da0b552d63c4280d74d35f8198064736f6c63430008120033",
  "linkReferences": {},
  "deployedLinkReferences": {}
}